:04000000C4EF15F044
:08000800046ED8CF05F0E0CF33
:1000100006F00001E9CF0CF0EACF07F0E1CF08F0DD
:10002000E2CF09F0D9CF0AF0DACF0BF0F3CF12F01C
:10003000F4CF13F0FACF14F000C00EF001C00FF0AF
:1000400002C010F003C011F09DA22AEF00F09EB292
:10005000DEEF0FF00EC000F00FC001F010C002F094
:1000600011C003F00CC0E9FF07C0EAFF078E08C00B
:10007000E1FF09C0E2FF0AC0D9FF0BC0DAFF12C0DE
:10008000F3FF13C0F4FF14C0FAFF045006C0E0FFF2
:1000900005C0D8FF1000F76AA60FF66E000EF72213
:1000A0000900F55012007F00000000000000000071
:1000B0000000000000007F000000000000000000C1
:1000C0000000000000007F000000C69E9E96ABC0AE
:1000D000C9FF020EC6BE05D09EA6FED7000EC5BC47
:1000E000010E016E1200C69CC586C5B6FED700B0D3
:1000F000C59A00A0C58AC588C5B8FED7C9CF01F08A
:100100001200C580C5B0FED7D890A535AA6FAB6FD9
:10011000DCDFA6C0ABF0D9DFC582C5B2FED7D89070
:10012000A5350109AA6FAB6FD0DFA8C003F0A7C047
:10013000E9FFA8C0EAFF006AD6DF01C0EFFFC5846F
:10014000C5B4FED712009EC0A5F0A0C0A6F0A86B53
:10015000A40EA76FD6DF9EC0A5F09FC0A6F0A86B27
:10016000A30EA76FCEDFA1C0E9FFA2C0EAFFA3C024
:10017000ECFFED52A4C0EFFF1200680E9E6F7FC02F
:100180009FF080C0A0F082C0A2F081C0A1F0DBDFB0
:1001900012008E0E006EA3C001F0A2C002F0036A2E
:1001A000A3AF05D0011E021E022A01E1012A01525D
:1001B00009E102C001F0026A080E005E015202E18C
:1001C000006A0AD0D89001BE04D00236013600067B
:1001D000F9D7A3BF01D0019E1200AF51D8B4A5D06A
:1001E000BB6FB351D8B4A1D0BB5F05E37F0EBB2773
:1001F000D8B09BD006D0810EBB5FD8A096D0D8B423
:1002000094D0BBC000F0016A026A036ABA6BB0C046
:10021000B9F0B98FB1C0B8F0B2C0B7F0190EBB6F6A
:10022000B651B75F0DE2010EB85F0AE2B95F08E2AE
:10023000BA5F06E2BA2BB92BB82BB651B72728D034
:10024000B551B85F12E2010EB95F0FE2BA5F0DE27D
:10025000BA2BB92BB551B827B651B72719E3B82B2C
:1002600017E1B92B15E1BA2B13D0B4518009B95F4E
:100270000EE2010EBA5F0BE2BA2BB4518009B92726
:10028000B551B827E9E3B92BE7E1BA2BE5D70380ED
:10029000BB2F01D00BD0D890B737B837B937BA37A2
:1002A000D890033602360136BC37BAD7BCA106D087
:1002B000D890013202320332BC3302D0000635E05E
:1002C000BCBF1ED0D890B737B837B937BA37B65198
:1002D000B75F07E2010EB85F04E2B95F02E2BA5FFE
:1002E0001AE3B551B85F05E2010EB95F02E2BA5FE9
:1002F00012E3B4518009B95F03E2010EBA5F0BE368
:10030000032A09E1022A07E1012A05E1002A0DE09A
:10031000013202320332B0C0BBF0B451BB1BBBAFE1
:1003200002D0018E06D0019E04D0006A016A026AE2
:10033000036A12007E6B7D6B430E7F6F440E806FED
:10034000826B790E816F19DF450E7F6F460E806FCD
:10035000826B7B0E816F11DF470E7F6F480E806FBF
:10036000826B7D0E816F09DF77C0E9FF78C0EAFFFD
:100370007AC0A3F079C0A2F00CDF03C0B2F002C0D3
:10038000B1F001C0B0F000C0AFF0B66BB56B030EBA
:10039000B46F850EB36F21DF00C0EFFF01C0ECFF2B
:1003A00002C0ECFF03C0ECFF040E7725E96E000EDF
:1003B0007821EA6E7CC0A3F07BC0A2F0EADE03C025
:1003C000B2F002C0B1F001C0B0F000C0AFF0B66B47
:1003D000B56B030EB46F850EB36FFFDE00C0EFFF89
:1003E00001C0ECFF02C0ECFF03C0ECFF080E772554
:1003F000E96E000E7821EA6E7EC0A3F07DC0A2F007
:10040000C8DE03C0B2F002C0B1F001C0B0F000C05D
:10041000AFF0B66BB56B030EB46F850EB36FDDDE58
:1004200000C0EFFF01C0ECFF02C0ECFF03C0ECFF17
:100430001200680E9E6F96C09FF097C0A0F099C002
:10044000A2F098C0A1F07FDE1200800ED8B2B41BDB
:10045000B96BBA6BB0C0B8F0B451B81BAF51D8B4D7
:10046000DCD0B76F006EB351D8B4E0D0B75FD8B46A
:1004700081D03DE3B4C0BDF0BD8FB5C0BCF0B6C007
:10048000BBF0BA6BD890BD33BC33BB33BA33B72F94
:10049000F8D7B8AF03D0B981DDD0B991B791B98998
:1004A000EA6AB20EE96EE9D0B999B8BF0AD0B7A12D
:1004B00013D0BD33BC33BB33BA33002AD8B4C5D054
:1004C0000BD0BDBF0CD0D890BA37BB37BC37BD37C7
:1004D0000006D8B4BAD0F5D7B98D6BD0B99DB0C0ED
:1004E000B8F0B0AF02D0BD8FA9D0BD9FA7D0B3C028
:1004F000B7F0B3C000F0AF51B75FB0C0BDF0BD8F73
:10050000B1C0BCF0B2C0BBF0BA6BD890BD33BC3345
:10051000BB33BA33B72FF8D7B8AF03D0B9839AD06B
:10052000B993B791B98BEA6AB60EE96EA6D0B99BBA
:10053000B8BF0AD0B7A113D0BD33BC33BB33BA3375
:10054000002AD8B482D00BD0BDBF0CD0D890BA3717
:10055000BB37BC37BD370006D8B477D0F5D7B98FD5
:1005600028D0B99FB4C0B8F0B4AF02D0BD8F66D068
:10057000BD9F64D0B4C0BDF0BD8FB5C0BCF0B6C0E7
:10058000BBF0B8AF04D0BD9FB98564D0B995BA6B44
:10059000B791EA6AB20EE96E70D0B8BF1CD0B0C095
:1005A000B8F0B7A106D0BD33BC33BB33BA33002A91
:1005B0004CE0BAAF0BD0BB2B09E1BC2B07E1BD2B44
:1005C00005E1BD33BC33BB33002A3FE0B9BD86D75C
:1005D000B9BFC7D71CD0800EBD1BBDAF04D03AD069
:1005E000B4C0B8F00AD0B0C0B8F0BD5306E1BC53F7
:1005F00004E1BB5302E1006A21D0BDBF08D0D8900E
:10060000BA37BB37BC37BD37002EF7D71ED0B8AFCF
:1006100002D0BD8F13D0BD9F11D0B3C000F0B4C0C5
:10062000BDF0B5C0BCF0B6C0BBF008D0AFC000F0A4
:10063000B0C0BDF0B1C0BCF0B2C0BBF0BDC001F0F5
:10064000BCC002F0BBC003F034D0006A016A026A89
:10065000036A2FD0BA6BBB1FBC1FBD1FBA1FBA2BBA
:1006600005E1BB2B03E1BC2B01E1BD2BB9B115D7D3
:10067000B9B356D7B9B58AD7B3D7EF50BB2705E37F
:10068000BC2B03E1BD2BD8B4B781ED52EF50BC2792
:1006900003E3BD2BD8B4B781ED52EF50EFBE01D0CC
:1006A000800ABD27D8B0B781B9B9FED6B9BB3FD74C
:1006B00074D71200956B946B3B0E966F3C0E976F40
:1006C000996B900E986FB5DE3D0E966F3E0E976F4C
:1006D000996B920E986FADDE3F0E966F400E976F3E
:1006E000996B940E986FA5DE8EC0E9FF8FC0EAFF6C
:1006F00091C0A3F090C0A2F04CDD03C0B2F002C0E4
:10070000B1F001C0B0F000C0AFF0B66BB56BB46B28
:100710008B0EB36F62DD03C09BF002C09AF001C084
:1007200099F000C098F0EACF9DF0E9CF9CF0D89204
:1007300003C0B2F002C0B1F001C0B0F000C0AFF031
:100740000A0EB66FD70EB56F230EB46F770EB36F68
:100750007CDE9DC0EAFF9CC0E9FF00C0EFFF01C046
:10076000ECFF02C0ECFF03C0ECFF040E8E25E96E27
:10077000000E8F21EA6E93C0A3F092C0A2F009DDB3
:1007800003C0B2F002C0B1F001C0B0F000C0AFF0E1
:10079000B66BB56BB46B8B0EB36F1FDD03C09BF0F4
:1007A00002C09AF001C099F000C098F0EACF9DF025
:1007B000E9CF9CF0D88203C0B2F002C0B1F001C012
:1007C000B0F000C0AFF0FA0EB66FED0EB56F6B0E65
:1007D000B46F780EB36F39DE9DC0EAFF9CC0E9FFAD
:1007E00000C0EFFF01C0ECFF02C0ECFF03C0ECFF54
:1007F000080E8E25E96E000E8F21EA6E95C0A3F0DB
:1008000094C0A2F0C6DC03C0B2F002C0B1F001C0D7
:10081000B0F000C0AFF0B66BB56BB46B8B0EB36FBE
:10082000DCDC03C09BF002C09AF001C099F000C06C
:1008300098F0EACF9DF0E9CF9CF0D89203C0B2F0D7
:1008400002C0B1F001C0B0F000C0AFF0790EB66FD9
:10085000010EB56F760EB46F7A0EB36FF6DD9DC0E4
:10086000EAFF9CC0E9FF00C0EFFF01C0ECFF02C03F
:10087000ECFF03C0ECFFC7EF09F00C0E9E6F9AC0AF
:100880009FF09BC0A0F09DC0A2F09CC0A1F05BDCDB
:1008900012008E0E006E9EC001F09DC002F0036A31
:1008A000015209E102C001F0026A080E005E015225
:1008B00002E1006A08D0D89001BE04D002360136A9
:1008C0000006F9D7019E1200AF51D8B471D0006E66
:1008D000B351D8B46DD0002604E3810E002668E23F
:1008E00004D07F0E005E64E363E0B0C0B7F0B451A3
:1008F000B71BB08FB48FB251B603F4CFB9F0B1517A
:10090000B503F4CF03F0F3CFB8F0B603F350B92733
:10091000F450B823000E0322B251B503F350B927A7
:10092000F450B823000E026A03220222B051B6032B
:10093000F350B827F4500322000E0222B051B50341
:10094000F3500326F4500222000E016A0122B25134
:10095000B403F350B827F4500322000E0222012200
:10096000B151B403F3500326F4500222000E0122C9
:10097000B051B403F3500226F4500122002A01BE04
:1009800005D0B8370336023601360006000EB8AF80
:100990000AD0032A02220122015005E1025003E19C
:1009A000035001E1002AB7BF018EB7AF019E04D00A
:1009B000006A016A026A036A1200956B946BF00E7A
:1009C000996F680EA56F100EA66FA86B960EA76F95
:1009D00081EC00F0680EA56F110EA66FA86B970E44
:1009E000A76F81EC00F0680EA56F120EA66FA86BC2
:1009F000980EA76F81EC00F099A10AD00C0EA56F9C
:100A0000020EA66FA86B990EA76F81EC00F0F4D7C9
:100A1000040E9A6F030E9B6F9D6B900E9C6F2DDFE3
:100A2000060E9A6F050E9B6F9D6B920E9C6F25DFD5
:100A3000080E9A6F070E9B6F9D6B940E9C6F1DDFC7
:100A40008EC0E9FF8FC0EAFF800E965D9E6B9D6FA2
:100A500020DF03C0B2F002C0B1F001C0B0F000C0AE
:100A6000AFF0B66BB56BB46B7E0EB36F2DDF03C00A
:100A70009FF002C09EF001C09DF000C09CF003C03A
:100A8000B2F002C0B1F001C0B0F000C0AFF0B66B80
:100A9000B56BB46B860EB36FEDEC00F003C09FF046
:100AA00002C09EF001C09DF000C09CF0EACFA1F012
:100AB000E9CFA0F0D89203C0B2F002C0B1F001C0FB
:100AC000B0F000C0AFF0B66BB56BB46B7F0EB36F18
:100AD000BCDCA1C0EAFFA0C0E9FF03C09FF002C0D8
:100AE0009EF001C09DF000C09CF091C0A3F090C0AA
:100AF000A2F0C9EC00F003C0B2F002C0B1F001C036
:100B0000B0F000C0AFF09FC0B6F09EC0B5F09DC081
:100B1000B4F09CC0B3F0D8DE00C0EFFF01C0ECFF22
:100B200002C0ECFF03C0ECFF040E8E25E96E000E40
:100B30008F21EA6E800E975D9E6B9D6FAADE03C0CB
:100B4000B2F002C0B1F001C0B0F000C0AFF0B66BBF
:100B5000B56BB46B7E0EB36FB7DE03C09FF002C0FF
:100B60009EF001C09DF000C09CF003C0B2F002C036
:100B7000B1F001C0B0F000C0AFF0B66BB56BB46BB4
:100B8000860EB36FEDEC00F003C09FF002C09EF044
:100B900001C09DF000C09CF0EACFA1F0E9CFA0F029
:100BA000D89203C0B2F002C0B1F001C0B0F000C0F2
:100BB000AFF0B66BB56BB46B7F0EB36F46DCA1C004
:100BC000EAFFA0C0E9FF03C09FF002C09EF001C091
:100BD0009DF000C09CF093C0A3F092C0A2F0C9ECBD
:100BE00000F003C0B2F002C0B1F001C0B0F000C02C
:100BF000AFF09FC0B6F09EC0B5F09DC0B4F09CC0F1
:100C0000B3F062DE00C0EFFF01C0ECFF02C0ECFFFA
:100C100003C0ECFF080E8E25E96E000E8F21EA6EF0
:100C2000800E985D9E6B9D6F34DE03C0B2F002C0F3
:100C3000B1F001C0B0F000C0AFF0B66BB56BB46BF3
:100C40007E0EB36F41DE03C09FF002C09EF001C074
:100C50009DF000C09CF003C0B2F002C0B1F001C032
:100C6000B0F000C0AFF0B66BB56BB46B860EB36F6F
:100C7000EDEC00F003C09FF002C09EF001C09DF0BB
:100C800000C09CF0EACFA1F0E9CFA0F0D89203C059
:100C9000B2F002C0B1F001C0B0F000C0AFF0B66B6E
:100CA000B56BB46B7F0EB36F25EC02F0A1C0EAFF09
:100CB000A0C0E9FF03C09FF002C09EF001C09DF0FC
:100CC00000C09CF095C0A3F094C0A2F0C9EC00F065
:100CD00003C0B2F002C0B1F001C0B0F000C0AFF08C
:100CE0009FC0B6F09EC0B5F09DC0B4F09CC0B3F0FC
:100CF000EBDD00C0EFFF01C0ECFF02C0ECFF03C062
:100D0000ECFF0C0EA56F090EA66FA86B990EA76FCE
:100D100081EC00F0CDEF09F0ACC0B3F0B051B31BE3
:100D2000B3AF05D0D894D890ACBFD8802FD0ACC08A
:100D3000B3F0AFC0B4F0AB51B45F06E0B3AF26D0B0
:100D4000D850010AD86E22D0B0C0B4F0AC51B45F14
:100D500006E0B3AF1BD0D850010AD86E17D0B1C08F
:100D6000B4F0AD51B45F06E0B3AF10D0D850010A73
:100D7000D86E0CD0B2C0B4F0AE51B45F06E0B3AFE1
:100D800005D0D850010AD86E01D0D89012009DC06D
:100D9000AEF09CC0ADF09BC0ACF09AC0ABF0B26BB3
:100DA000B16BB06BAF6BB8DF01E205E1006A016ABD
:100DB000026A036A72D09DC0A1F09CC0A0F09BC0E3
:100DC0009FF09AC09EF0A76B9E0EA66FA6C0E9FF8B
:100DD000A7C0EAFFEF50AB6BAA6F7F0EAA27000EE9
:100DE000AB23D890AB31AA31A7C0EAFFA6C0E9FF78
:100DF000EF6EA1C0A5F0A0C0A4F09FC0A3F09EC05C
:100E0000A2F09DC0B2F09CC0B1F09BC0B0F09AC0FF
:100E1000AFF0A1C0B6F0A0C0B5F09FC0B4F09EC0C6
:100E2000B3F0EDEC00F0D892A1C0B2F0A0C0B1F0E8
:100E30009FC0B0F09EC0AFF003C0B6F002C0B5F0E6
:100E400001C0B4F000C0B3F025EC02F003C0A1F083
:100E500002C0A0F001C09FF000C09EF0A6C0E9FF54
:100E6000A7C0EAFFEF06A5C0AEF0A4C0ADF0A3C0D6
:100E7000ACF0A2C0ABF0A1C0B2F0A0C0B1F09FC076
:100E8000B0F09EC0AFF048DFB4E1A2C000F0A3C054
:100E900001F0A4C002F0A5C003F01200AA91AA9329
:100EA0009DC0A1F09CC0A0F09BC09FF09AC09EF096
:100EB0009DC0AEF09CC0ADF09BC0ACF09AC0ABF052
:100EC000B26BB16BB06BAF6B27DF04E3AA819F51AC
:100ED000800A9F6FAE6BAD6BAC6B7F0EAB6FA1C02A
:100EE000B2F0A0C0B1F09FC0B0F09EC0AFF014DF70
:100EF00018E3B26BB16BB06B7F0EAF6FA1C0B6F0F1
:100F0000A0C0B5F09FC0B4F09EC0B3F0EDEC00F00F
:100F100003C0A1F002C0A0F001C09FF000C09EF08D
:100F2000AA830A0EB26F890EB16F340EB06F7C0EB9
:100F3000AF6FA1C0B6F0A0C0B5F09FC0B4F09EC026
:100F4000B3F0C2DC03C0AEF002C0ADF001C0ACF043
:100F500000C0ABF003C0B2F002C0B1F001C0B0F00D
:100F600000C0AFF0A1C0B6F0A0C0B5F09FC0B4F013
:100F70009EC0B3F0A9DC03C0AEF002C0ADF001C06A
:100F8000ACF000C0ABF0D89203C0B2F002C0B1F038
:100F900001C0B0F000C0AFF07C0EB66F790EB56F37
:100FA000350EB46F810EB36F25EC02F003C0A5F0CF
:100FB00002C0A4F001C0A3F000C0A2F0A5C0B2F02E
:100FC000A4C0B1F0A3C0B0F0A2C0AFF0A1C0B6F011
:100FD000A0C0B5F09FC0B4F09EC0B3F075DC03C0F4
:100FE000AEF002C0ADF001C0ACF000C0ABF003C089
:100FF000B2F002C0B1F001C0B0F000C0AFF0A1C0CB
:10100000B6F0A0C0B5F09FC0B4F09EC0B3F05CDCF9
:1010100003C0AEF002C0ADF001C0ACF000C0ABF058
:10102000D89203C0B2F002C0B1F001C0B0F000C06D
:10103000AFF03F0EB66F020EB56F330EB46F830E76
:10104000B36F25EC02F003C0A5F002C0A4F001C00C
:10105000A3F000C0A2F0A5C0B2F0A4C0B1F0A3C03C
:10106000B0F0A2C0AFF0A1C0B6F0A0C0B5F09FC074
:10107000B4F09EC0B3F028DC03C0AEF002C0ADF007
:1010800001C0ACF000C0ABF003C0B2F002C0B1F0E0
:1010900001C0B0F000C0AFF0A1C0B6F0A0C0B5F084
:1010A0009FC0B4F09EC0B3F00FDC03C0AEF002C02E
:1010B000ADF001C0ACF000C0ABF0D89203C0B2F00C
:1010C00002C0B1F001C0B0F000C0AFF0330EB66F97
:1010D0008C0EB56F1E0EB46F830EB36F25EC02F04D
:1010E00003C0A5F002C0A4F001C0A3F000C0A2F0AC
:1010F000B26BB16BB06B7F0EAF6FA1C0B6F0A0C08A
:10110000B5F09FC0B4F09EC0B3F064EC04F003C02F
:10111000AEF002C0ADF001C0ACF000C0ABF003C057
:10112000B2F002C0B1F001C0B0F000C0AFF0A1C099
:10113000B6F0A0C0B5F09FC0B4F09EC0B3F064ECB0
:1011400004F003C0AEF002C0ADF001C0ACF000C0CE
:10115000ABF0D89203C0B2F002C0B1F001C0B0F061
:1011600000C0AFF01B0EB66FE40EB56F350EB46F56
:10117000820EB36F25EC02F003C0A9F002C0A8F004
:1011800001C0A7F000C0A6F0A9C0B2F0A8C0B1F09D
:10119000A7C0B0F0A6C0AFF0A1C0B6F0A0C0B5F037
:1011A0009FC0B4F09EC0B3F064EC04F003C0AEF096
:1011B00002C0ADF001C0ACF000C0ABF003C0B2F0B3
:1011C00002C0B1F001C0B0F000C0AFF0A1C0B6F0F5
:1011D000A0C0B5F09FC0B4F09EC0B3F064EC04F0C2
:1011E00003C0AEF002C0ADF001C0ACF000C0ABF087
:1011F000D89203C0B2F002C0B1F001C0B0F000C09C
:10120000AFF0A40EB66FDB0EB56F670EB46F830E32
:10121000B36F25EC02F003C0A9F002C0A8F001C032
:10122000A7F000C0A6F0A9C0B2F0A8C0B1F0A7C056
:10123000B0F0A6C0AFF0A1C0B6F0A0C0B5F09FC09E
:10124000B4F09EC0B3F064EC04F003C0AEF002C092
:10125000ADF001C0ACF000C0ABF003C0B2F002C012
:10126000B1F001C0B0F000C0AFF0A1C0B6F0A0C0B6
:10127000B5F09FC0B4F09EC0B3F064EC04F003C0BE
:10128000AEF002C0ADF001C0ACF000C0ABF0D8923F
:1012900003C0B2F002C0B1F001C0B0F000C0AFF0C6
:1012A000330EB66F8C0EB56F1E0EB46F830EB36F18
:1012B00025EC02F003C0A9F002C0A8F001C0A7F01D
:1012C00000C0A6F0A1C0B2F0A0C0B1F09FC0B0F0C5
:1012D0009EC0AFF0A5C0B6F0A4C0B5F0A3C0B4F0F6
:1012E000A2C0B3F064EC04F003C0AEF002C0ADF0F5
:1012F00001C0ACF000C0ABF003C0B2F002C0B1F06E
:1013000001C0B0F000C0AFF0A9C0B6F0A8C0B5F001
:10131000A7C0B4F0A6C0B3F0EDEC00F003C0A5F098
:1013200002C0A4F001C0A3F000C0A2F0AAA31BD089
:10133000D882DB0EB26F0F0EB16F490EB06F7F0E09
:10134000AF6FA5C0B6F0A4C0B5F0A3C0B4F0A2C002
:10135000B3F025EC02F003C0A5F002C0A4F001C078
:10136000A3F000C0A2F0AAA103D0A351800AA36FEA
:10137000A2C000F0A3C001F0A4C002F0A5C003F019
:1013800012007EC08FF07DC08EF05AEF03F080C057
:101390008FF07FC08EF0DDEF04F07FC0E9FF80C0EA
:1013A000EAFFEFCF8EF0ECCF8FF0ECCF90F0ECCFE8
:1013B00091F0EACF93F0E9CF92F0D88291C0B2F0E9
:1013C00090C0B1F08FC0B0F08EC0AFF03D0EB66FE0
:1013D0005A0EB56F120EB46F870EB36F25EC02F084
:1013E00093C0EAFF92C0E9FF03C084F002C083F01B
:1013F00001C082F000C081F0040E7F25E96E000E6E
:101400008021EA6EEFCF8EF0ECCF8FF0ECCF90F032
:10141000ECCF91F0EACF93F0E9CF92F0D88291C06F
:10142000B2F090C0B1F08FC0B0F08EC0AFF0EC0E53
:10143000B66FE10EB56F390EB46F870EB36F25EC42
:1014400002F093C0EAFF92C0E9FF03C088F002C037
:1014500087F001C086F000C085F0080E7F25E96E98
:10146000000E8021EA6EEFCF8EF0ECCF8FF0ECCF44
:1014700090F0ECCF91F0EACF93F0E9CF92F0D882E0
:1014800091C0B2F090C0B1F08FC0B0F08EC0AFF09C
:101490009A0EB66FF90EB56F830EB46F870EB36FE9
:1014A00025EC02F093C0EAFF92C0E9FF03C08CF084
:1014B00002C08BF001C08AF000C089F08D6B8D51A5
:1014C0000208D8A0F4D08D51040DF350036A7F2593
:1014D000E96E80510320EA6E8D510C0DF350916B33
:1014E000906F91C003F09051F2CF92F0F29E4BECCE
:1014F00000F0006E0900F5CF01F00900F5CF02F011
:101500000900F5CF03F092BFF28E03C095F002C040
:1015100094F001C093F0926F03C0B2F002C0B1F03A
:1015200001C0B0F0AF6F84C0B6F083C0B5F082C028
:10153000B4F081C0B3F064EC04F003C095F002C0D5
:1015400094F001C093F000C092F08D510C0DF35057
:10155000976B966F040E9625016E000E9721036E11
:101560000150F2CF96F0F29E4BEC00F0006E0900B5
:10157000F5CF01F00900F5CF02F00900F5CF03F037
:1015800096BFF28E03C099F002C098F001C097F0A8
:10159000966F03C0B2F002C0B1F001C0B0F0AF6FFF
:1015A00088C0B6F087C0B5F086C0B4F085C0B3F08F
:1015B00064EC04F0EACF97F0E9CF96F0D89295C0AA
:1015C000B2F094C0B1F093C0B0F092C0AFF003C0DD
:1015D000B6F002C0B5F001C0B4F000C0B3F025EC25
:1015E00002F097C0EAFF96C0E9FF03C095F002C081
:1015F00094F001C093F000C092F08D510C0DF350A7
:10160000996B986F080E9825016E000E9921036E54
:101610000150F2CF98F0F29E4BEC00F0006E090002
:10162000F5CF01F00900F5CF02F00900F5CF03F086
:1016300098BFF28E03C09BF002C09AF001C099F0EF
:10164000986F03C0B2F002C0B1F001C0B0F0AF6F4C
:101650008CC0B6F08BC0B5F08AC0B4F089C0B3F0CE
:1016600064EC04F0EACF99F0E9CF98F0D89295C0F5
:10167000B2F094C0B1F093C0B0F092C0AFF003C02C
:10168000B6F002C0B5F001C0B4F000C0B3F025EC74
:1016900002F099C0EAFF98C0E9FF00C0EFFF01C067
:1016A000ECFF02C0ECFF03C0ECFF8D2B08D7040E4B
:1016B0007B25016E000E7C21036E01C08EF08F6FC2
:1016C000040E7D25E96E000E7E21EA6EEFCF90F0CC
:1016D000ECCF91F0ECCF92F0ECCF93F07DC0E9FF2E
:1016E0007EC0EAFFEFCF94F0ECCF95F0ECCF96F010
:1016F000ECCF97F07DC0E9FF7EC0EAFFEFCF00F0AE
:10170000ECCF01F0ECCF02F0ECCF03F097C0B2F0D9
:1017100096C0B1F095C0B0F094C0AFF003C0B6F081
:1017200002C0B5F001C0B4F000C0B3F064EC04F046
:1017300003C097F002C096F001C095F000C094F08D
:10174000080E7D25E96E000E7E21EA6EEFCF98F03F
:10175000ECCF99F0ECCF9AF0ECCF9BF0080E7D2502
:10176000E96E000E7E21EA6EEFCF00F0ECCF01F0C3
:10177000ECCF02F0ECCF03F09BC0B2F09AC0B1F016
:1017800099C0B0F098C0AFF003C0B6F002C0B5F099
:1017900001C0B4F000C0B3F064EC04F0EACF99F0FB
:1017A000E9CF98F0D89297C0B2F096C0B1F095C04A
:1017B000B0F094C0AFF003C0B6F002C0B5F001C005
:1017C000B4F000C0B3F025EC02F099C0EAFF98C075
:1017D000E9FF03C097F002C096F001C095F000C089
:1017E00094F003C09DF002C09CF001C09BF000C0CB
:1017F0009AF0C7EC06F093C0B2F092C0B1F091C07D
:10180000B0F090C0AFF003C0B6F002C0B5F001C0B8
:10181000B4F000C0B3F0EDEC00F003C093F002C0F0
:1018200092F001C091F000C090F003C09DF002C0A2
:101830009CF001C09BF000C09AF04EEC07F003C092
:1018400093F002C092F001C091F000C090F003C08C
:10185000B2F002C0B1F001C0B0F000C0AFF0B66BA2
:10186000B56B340EB46F860EB36F64EC04F003C036
:1018700093F002C092F001C091F000C090F003C05C
:10188000B2F002C0B1F001C0B0F000C0AFF0DB0EAA
:10189000B66F0F0EB56F490EB46F800EB36FEDECDF
:1018A00000F08FC0EAFF8EC0E9FF00C0EFFF01C06B
:1018B000ECFF02C0ECFF03C0ECFF7BC08EF07CC0ED
:1018C0008FF07DC0E9FF7EC0EAFFEFCF90F0ECCF54
:1018D00091F0ECCF92F0ECCF93F0040E7D25E96E01
:1018E000000E7E21EA6EEFCF94F0ECCF95F0ECCFB6
:1018F00096F0ECCF97F0040E7D25E96E000E7E2168
:10190000EA6EEFCF00F0ECCF01F0ECCF02F0ECCFBD
:1019100003F097C0B2F096C0B1F095C0B0F094C09B
:10192000AFF003C0B6F002C0B5F001C0B4F000C023
:10193000B3F064EC04F003C097F002C096F001C06D
:1019400095F000C094F0080E7D25E96E000E7E2112
:10195000EA6EEFCF98F0ECCF99F0ECCF9AF0ECCFA5
:101960009BF0080E7D25E96E000E7E21EA6EEFCF1A
:1019700000F0ECCF01F0ECCF02F0ECCF03F09BC015
:10198000B2F09AC0B1F099C0B0F098C0AFF003C007
:10199000B6F002C0B5F001C0B4F000C0B3F064EC22
:1019A00004F0EACF99F0E9CF98F0D89297C0B2F05E
:1019B00096C0B1F095C0B0F094C0AFF003C0B6F0DF
:1019C00002C0B5F001C0B4F000C0B3F025EC02F0E5
:1019D00099C0EAFF98C0E9FF03C097F002C096F0F3
:1019E00001C095F000C094F003C09DF002C09CF0CF
:1019F00001C09BF000C09AF0C7EC06F093C0B2F0B3
:101A000092C0B1F091C0B0F090C0AFF003C0B6F09A
:101A100002C0B5F001C0B4F000C0B3F0EDEC00F0CE
:101A200003C093F002C092F001C091F000C090F0AA
:101A300003C09DF002C09CF001C09BF000C09AF072
:101A40004EEC07F003C093F002C092F001C091F099
:101A500000C090F003C0B2F002C0B1F001C0B0F01D
:101A600000C0AFF0B66BB56BB40EB46F860EB36F3B
:101A700064EC04F003C093F002C092F001C091F056
:101A800000C090F003C0B2F002C0B1F001C0B0F0ED
:101A900000C0AFF0DB0EB66F0F0EB56F490EB46F1E
:101AA000800EB36FEDEC00F08FC0EAFF8EC0E9FF4F
:101AB00000C0EFFF01C0ECFF02C0ECFF03C0ECFF71
:101AC000080E7B25016E000E7C2101C08EF08F6F09
:101AD0007FC0E9FF80C0EAFFEFCF00F0ECCF01F05C
:101AE000ECCF02F0ECCF03F003C093F002C092F011
:101AF00001C091F000C090F0040E7F25E96E000E49
:101B00008021EA6EEFCF00F0ECCF01F0ECCF02F0D5
:101B1000ECCF03F093C0B2F092C0B1F091C0B0F03E
:101B200090C0AFF003C0B6F002C0B5F001C0B4F091
:101B300000C0B3F0EDEC00F003C093F002C092F0EF
:101B400001C091F000C090F003C09DF002C09CF075
:101B500001C09BF000C09AF04EEC07F0B26BB16B85
:101B6000B06B7F0EAF6F03C0B6F002C0B5F001C01E
:101B7000B4F000C0B3F064EC04F003C093F002C012
:101B800092F001C091F000C090F003C0B2F002C02A
:101B9000B1F001C0B0F000C0AFF0B66BB56B340E61
:101BA000B46F860EB36F64EC04F003C093F002C010
:101BB00092F001C091F000C090F003C0B2F002C0FA
:101BC000B1F001C0B0F000C0AFF0DB0EB66F0F0E89
:101BD000B56F490EB46F800EB36FEDEC00F08FC09F
:101BE000EAFF8EC0E9FF00C0EFFF01C0ECFF02C0BA
:101BF000ECFF03C0ECFFF5EF0FF08E0E006E795195
:101C0000005E7AC002F07BC001F0028E005209E053
:101C1000D890025202E1015204E002320132002E59
:101C2000F7D77AAF05D0011E021E012AD8B4022AC6
:101C300012000900F6CF7BF0F7CF7CF0F5509EA89C
:101C4000FED7AD6E7BC0F6FF7CC0F7FF7A2FF1D7D1
:101C500012008151016A805D03E280C000F00CD067
:101C6000006A080E826F803700368151005CD8B060
:101C7000006E0136822FF7D71200200E7BA9300E9E
:101C80007C6F7AC000F07AAF08D0001E002A00C036
:101C90007AF02D0E7C6F7B8F7B8101507AC080F0B3
:101CA000640E816FD6DF00C07AF0300E01247D6FA4
:101CB0007AC080F00A0E816FCCDF300E00247F6F77
:101CC000300E01247E6F7CC000F0300E7D5D04E09C
:101CD0007B837BBF7B8512D07CC07DF0200E7C6F28
:101CE000300E7E5D04E07B817BBF7B8307D0D8A470
:101CF0007B8104E17DC07EF0200E7D6F7BB505D039
:101D00007BB307D07BB109D00CD07C519EA8FED705
:101D1000AD6E7D519EA8FED7AD6E7E519EA8FED7BA
:101D2000AD6E7F519EA8FED7AD6E12008451B608ED
:101D3000846F036A85C088F0858FD8908533863399
:101D400087330332023201320032842FF6D788AF54
:101D50000BD0001E011E021E031E002AD8B4012A49
:101D6000D8B4022AD8B4032A1200D8B203D0EA6A3F
:101D70008C0EE96E006A016A026A036A8C6B8D6BD5
:101D80008E6B8F6B8B518A11891188112CE0200E7C
:101D9000906FD89084378537863787378C378D3763
:101DA0008E378F378B518F5D08E18A518E5D05E14B
:101DB00089518D5D02E188518C5D0FE388518C5F04
:101DC0008951D8A0893D8D5F8A51D8A08A3D8E5F08
:101DD0008B51D8A08B3D8F5FD880003601360236FC
:101DE0000336902FD6D78CC0EFFF8DC0ECFF8EC08E
:101DF000ECFF8FC0ECFF1200E9507C6F7B517E6FCF
:101E00001AE07AC0B2F079C0B1F078C0B0F077C013
:101E1000AFF0B66BB56B200EB46F820EB36F64EC8F
:101E200004F003C07AF002C079F001C078F000C07D
:101E300077F07E2FE6D77E0E006E016A78BF018EA6
:101E4000026A036AD8927AC0B2F079C0B1F078C061
:101E5000B0F077C0AFF003C0B6F002C0B5F001C07B
:101E6000B4F0B36F25EC02F003C07AF002C079F051
:101E700001C078F000C077F07AC087F079C086F0B2
:101E800078C085F077C084F051DF03C07AF002C0DB
:101E900079F001C078F000C077F07AAF0DD07C0700
:101EA0007C8B771F781F791F7A1F772BD8B4782BFC
:101EB000D8B4792BD8B47A2B3B0E836F9A0E826FED
:101EC000CA0E816F806B0A0E7E6F7B51D8B47C2B5B
:101ED000D882EA6A770EE96E7AC087F079C086F018
:101EE00078C085F077C084F083C08BF082C08AF020
:101EF00081C089F080C088F038DF015000520FE1C6
:101F00007B297E5D0CE07C510CE00F0B7E5D01E0D7
:101F10003BE27CBF39D07CBD04D0200E30D0200EF7
:101F20007C177CAB0DD07C9B7B51D8A47C070050E8
:101F30007C6F2D0E9EA8FED7AD6E7C51006E7C6B23
:101F40007B517E5D0BE100507C6F2E0E9EA8FED76C
:101F5000AD6E7C51006E200E7C17000E300E7CABF7
:101F60000ED07C9B7B51D8A47C0700507C6F2D0E3B
:101F70009EA8FED7AD6E7C51006E7C6B300E0026A5
:101F800000509EA8FED7AD6ED89283C087F082C065
:101F900086F081C085F080C084F08B6B8A6B896B82
:101FA0000A0E886FE2DE03C083F002C082F001C037
:101FB00081F000C080F07E2F8BD71200786B1D0E51
:101FC000776F9AEC01F0786B290E776F78C07AF012
:101FD000796F7C6B4D0E7B6F7E6B350E7D6F78C09D
:101FE00080F077C07FF0C1EF09F02CC07CF02BC0EF
:101FF0007BF02AC07AF029C079F0FFDD01500A0D8C
:10200000F3CF77F030C07CF02FC07BF02EC07AF099
:102010002DC079F0F2DD01500A0DF3CF78F034C015
:102020007CF033C07BF032C07AF031C079F0E5DD6E
:1020300001500A0DF3CF79F0000EF66E210EF76E07
:10204000100E7A6FF6DD77C07AF0180E7B6F15DE12
:102050002C0E9EA8FED7AD6E78C07AF0180E7B6F5E
:102060000CDE2C0E9EA8FED7AD6E79C07AF0180E4D
:102070007B6F03DE0A0E9EA8FED7AD6E1A0EF66EBB
:10208000210EF76E220E7A6FD4DD890EE96E2CC018
:102090007AF02BC079F02AC078F029C077F0020ED0
:1020A0007B6FAADE2C0E9EA8FED7AD6E890EE96E60
:1020B00030C07AF02FC079F02EC078F02DC077F0C4
:1020C000020E7B6F99DE2C0E9EA8FED7AD6E890E98
:1020D000E96E34C07AF033C079F032C078F031C0A4
:1020E00077F0020E7B6F88DE200E9EA8FED7AD6EC5
:1020F0000A0E9EA8FED7AD6E9E929E922AEF00F029
:102100005261773A302C302C302C302C302C302C43
:1021100025642C25642C25640A00556E693A302EFE
:1021200030302C302E30302C302E30302C302E30C1
:10213000302C302E30302C302E30302C25672C2592
:10214000672C2567200A00001B5B33336D737461B5
:102150007274206F6620696E697420200A0D1B5B03
:10216000306D000043616C6962726174696F6E204A
:102170006F66204779726F2069732073746172747F
:10218000656420646F6E2774206D6F7665207468B7
:10219000652073656E736F720A0D000043616C6990
:1021A00062726174696F6E206F66204779726F206A
:1021B00069732066696E69736865640A0D0052610F
:1021C000746543616C6962726174696F6E506974A1
:1021D0006368203D20252E3566202C2052617465D1
:1021E00043616C6962726174696F6E526F6C6C20CE
:1021F0003D20252E3566202C205261746543616C8C
:102200006962726174696F6E596177203D20252E75
:102210003566200A0D004D5055393235302069732E
:10222000206F6E6C696E652E2E2E0A0D00004D50CB
:102230005539323530206973206E6F74206F6E6CA3
:10224000696E652E2E2E0A0D0000414B383936334B
:10225000206973206F6E6C696E652E2E2E0A0D003C
:10226000414B38393633206973206E6F74206F6E9E
:102270006C696E652E2E2E0A0D00307830332D3E9F
:102280003E20434F4E4649473A2025780A0D00002C
:10229000307830312D3E3E205057525F4D474D54DF
:1022A0005F313A2025780A0D0000307830302D3E1D
:1022B0003E205057525F4D474D545F323A202578AB
:1022C0000A0D0000307830322D3E3E20494E545FDA
:1022D00050494E5F4346473A2025780A0D00307832
:1022E0003037312D3E3E2057484F5F414D5F495FAB
:1022F0004D5055393235303A2025780A0D003034AA
:10230000382D3E3E202057484F5F414D5F495F4189
:102310004B383936333A2025780A0D001B5B3333AE
:102320006D4779726F203A2058203D20252E356662
:102330002C2059203D20252E35662C205A203D206A
:10234000252E356620286465672F732920202009F3
:102350001B5B306D00001B5B33336D4D61672020CC
:102360003A2058203D20252E35662C2059203D202E
:10237000252E35662C205A203D20252E3566202816
:10238000755429202020202020091B5B306D00007F
:102390001B5B33336D416363656C3A2058203D20ED
:1023A000252E35662C2059203D20252E35662C20E3
:1023B0005A203D20252E3566202867292020202000
:1023C000200A0D1B5B306D00EA6A5D0EE96EEF506E
:1023D0000DE0020E016E006A002EFED7012EFBD723
:1023E000970E006E002EFED7EF2EF3D712000900D5
:1023F000F5520DE0F6CF5AF0F7CF5BF0F5509EA8FE
:10240000FED7AD6E5AC0F6FF5BC0F7FFF0D71200E3
:10241000C580C5B0FED7D8905A345E6E166AF2BE3B
:10242000168EF29EAB6F65EC00F016BEF28E166A49
:10243000F2BE168EF29E5BC0ABF065EC00F016BEED
:10244000F28E166AF2BE168EF29E5CC0ABF065ECA0
:1024500000F016BEF28EC584C5B4FED71200680E19
:102460005A6E1A0E5B6E030E5C6ED2DF680E5A6EE9
:102470006B0E5B6E010E5C6ECBDF680E5A6E6C0EDF
:102480005B6E5C6AC5DF680E5A6E1C0E5B6E100ECA
:102490005C6EBEDF680E5A6E1B0E5B6E080E5C6EC5
:1024A000B7DF680E5A6E370E5B6E020E5C6EB0DFE1
:1024B000680E5A6E240E5B6E0D0E5C6EA9DF0C0E5C
:1024C0005A6E0B0E5B6E010E5C6EA2DF0C0E5A6E26
:1024D0000A0E5B6E120E5C6E9BDF640E5D6E74DF27
:1024E000596A166AF2BE168EF29E680EA56F750EB8
:1024F000A66FA86B590EA76F81EC00F016BEF28E86
:102500005950710806E1160EF66E220EF76E6FDF57
:1025100005D02E0EF66E220EF76E69DF166AF2BE39
:10252000168EF29E0C0EA56FA66BA86B590EA76FA8
:1025300081EC00F016BEF28E5950480806E14A0EB2
:10254000F66E220EF76E53DF05D0600EF66E220E89
:10255000F76E4DDF14EF16F05BBE10D00F0E006E5D
:102560005A3800160A0E005C03E2300E002602D034
:102570005B50002600509EA8FED7AD6E0F0E5A1677
:102580000A0E5A5C02E2300E02D05B9E5B505A2665
:102590005A509EA8FED7AD6E1200596A166AF2BE56
:1025A000168EF29E680EA56F1A0EA66FA86B590EB6
:1025B000A76F81EC00F016BEF28E7A0EF66E220E38
:1025C000F76E166AF2BE168EF29E100E7A6F19EC36
:1025D0000EF016BEF28E59C05AF0570E5B6EBCDF7D
:1025E0000A0E9EA8FED7AD6E0D0E9EA8FED7AD6E4C
:1025F000166AF2BE168EF29E680EA56F6B0EA66F5F
:10260000A86B590EA76F81EC00F016BEF28E900EEB
:10261000F66E220EF76E166AF2BE168EF29E140E3B
:102620007A6F19EC0EF016BEF28E59C05AF0570EA2
:102630005B6E92DF0A0E9EA8FED7AD6E0D0E9EA8B1
:10264000FED7AD6E166AF2BE168EF29E680EA56FAC
:102650006C0EA66FA86B590EA76F81EC00F016BE2A
:10266000F28EAA0EF66E220EF76E166AF2BE168E65
:10267000F29E140E7A6F19EC0EF016BEF28E59C04F
:102680005AF0570E5B6E68DF0A0E9EA8FED7AD6E3D
:102690000D0E9EA8FED7AD6E166AF2BE168EF29E85
:1026A000680EA56F370EA66FA86B590EA76F81EC49
:1026B00000F016BEF28EC40EF66E220EF76E166A8B
:1026C000F2BE168EF29E150E7A6F19EC0EF016BE43
:1026D000F28E59C05AF0570E5B6E3EDF0A0E9EA86E
:1026E000FED7AD6E0D0E9EA8FED7AD6E166AF2BE79
:1026F000168EF29E680EA56F750EA66FA86B590E0A
:10270000A76F81EC00F016BEF28EDE0EF66E220E82
:10271000F76E166AF2BE168EF29E1B0E7A6F19ECD9
:102720000EF016BEF28E59C05AF0570E5B6E14DFD3
:102730000A0E9EA8FED7AD6E0D0E9EA8FED7AD6EFA
:10274000166AF2BE168EF29E0C0EA56FA66BA86BD3
:10275000590EA76F81EC00F016BEF28EFE0EF66EDB
:10276000220EF76E166AF2BE168EF29E190E7A6F60
:1027700019EC0EF016BEF28E59C05AF0570E5B6E71
:10278000EBDE0A0E9EA8FED7AD6E0D0E9EA8FED7FC
:10279000AD6E15EF16F05C6A5B6A5C500708D8A056
:1027A000A2D004E15B50CF08D8A09DD0166AF2BE3B
:1027B000168EF29E786B1D0E776F9AEC01F016BEA6
:1027C000F28E040E5924E96E000E5A20EA6EEACF0A
:1027D00064F0E9CF63F0D892166AF2BE168EF29ECC
:1027E000EFCFAFF0ECCFB0F0ECCFB1F0ECCFB2F078
:1027F00020C0B6F01FC0B5F01EC0B4F01DC0B3F0CD
:1028000025EC02F016BEF28E64C0EAFF63C0E9FF59
:1028100000C0EFFF01C0ECFF02C0ECFF03C0ECFF03
:1028200059C0E9FF5AC0EAFFEACF64F0E9CF63F08C
:10283000D892166AF2BE168EF29EEFCFAFF0ECCFB2
:10284000B0F0ECCFB1F0ECCFB2F024C0B6F023C0C2
:10285000B5F022C0B4F021C0B3F025EC02F016BEF2
:10286000F28E64C0EAFF63C0E9FF00C0EFFF01C061
:10287000ECFF02C0ECFF03C0ECFF080E5924E96E28
:10288000000E5A20EA6EEACF64F0E9CF63F0D892E6
:10289000166AF2BE168EF29EEFCFAFF0ECCFB0F01C
:1028A000ECCFB1F0ECCFB2F028C0B6F027C0B5F055
:1028B00026C0B4F025C0B3F025EC02F016BEF28EAF
:1028C00064C0EAFF63C0E9FF00C0EFFF01C0ECFF96
:1028D00002C0ECFF03C0ECFF010E5D6E75DD5B2AEC
:1028E000D8B45C2A5AD7040E5924E96E000E5A2037
:1028F000EA6E166AF2BE168EF29EEFCFAFF0ECCF04
:10290000B0F0ECCFB1F0ECCFB2F0ED52ED52ED52B1
:10291000B66BB56B7A0EB46F890EB36FEDEC00F049
:1029200016BEF28E00C0EFFF01C0ECFF02C0ECFF4C
:1029300003C0ECFF59C0E9FF5AC0EAFF166AF2BEB5
:10294000168EF29EEFCFAFF0ECCFB0F0ECCFB1F03F
:10295000ECCFB2F0ED52ED52ED52B66BB56B7A0E94
:10296000B46F890EB36FEDEC00F016BEF28E00C0AE
:10297000EFFF01C0ECFF02C0ECFF03C0ECFF080E4C
:102980005924E96E000E5A20EA6E166AF2BE168EBF
:10299000F29EEFCFAFF0ECCFB0F0ECCFB1F0ECCFD8
:1029A000B2F0ED52ED52ED52B66BB56B7A0EB46FDC
:1029B000890EB36FEDEC00F016BEF28E00C0EFFF93
:1029C00001C0ECFF02C0ECFF03C0ECFF27EF16F0E4
:1029D000E9505E6E5D50606F20E0166AF2BE168EA2
:1029E000F29E5CC0B2F05BC0B1F05AC0B0F059C00A
:1029F000AFF0B66BB56B200EB46F820EB36F64ECA4
:102A000004F016BEF28E03C05CF002C05BF001C0A1
:102A10005AF000C059F0602FE0D7166AF2BE168E49
:102A2000F29E5CC087F05BC086F05AC085F059C04A
:102A300084F096EC0EF016BEF28E03C05CF002C07D
:102A40005BF001C05AF000C059F05CAE0DD05E06DC
:102A50005E8A591E5A1E5B1E5C1E592AD8B45A2A19
:102A6000D8B45B2AD8B45C2A3B0E656F9A0E646FAB
:102A7000CA0E636F626B0A0E606F5D50D8B45E2A37
:102A8000D882EA6A590EE96E166AF2BE168EF29E76
:102A90005CC087F05BC086F05AC085F059C084F0F6
:102AA00065C08BF064C08AF063C089F062C088F0B2
:102AB000B5EC0EF016BEF28E015000520FE15D280B
:102AC000605D0CE05E500CE00F0B605D01E03BE2EE
:102AD0005EBE39D05EBC04D0200E30D0200E5E1613
:102AE0005EAA0DD05E9A5D50D8A45E0600505E6E60
:102AF0002D0E9EA8FED7AD6E5E50006E5E6A5D50D4
:102B0000605D0BE100505E6E2E0E9EA8FED7AD6E8E
:102B10005E50006E200E5E16000E300E5EAA0ED0C5
:102B20005E9A5D50D8A45E0600505E6E2D0E9EA883
:102B3000FED7AD6E5E50006E5E6A300E002600500D
:102B40009EA8FED7AD6ED892166AF2BE168EF29E81
:102B500065C087F064C086F063C085F062C084F011
:102B60008B6B8A6B896B0A0E886FB5EC0EF016BE04
:102B7000F28E03C065F002C064F001C063F000C0D3
:102B800062F0602F7DD71200F86AD09E078EB8865B
:102B9000100EAF6E000EB06EA60EAC6E900EAB6E49
:102BA00093829380040EC86E280EC66EC79EC79C83
:102BB000C78C0AD00200170000010FB4073C401D6B
:102BC0000002001700000000000EF86E2B0EF76EDA
:102BD000B40EF66E0900F550006E000A13E009000D
:102BE000F550016EE8BE05D00F0BEA6E0900F5CF77
:102BF000E9FF01BC090001AC0900F5CFEEFF004E72
:102C0000E9D7F9D7F86A93829380020E596EFA0ECB
:102C10005D6EE4EC11F0592EFAD7480EF66E210ED7
:102C2000F76EF7EC11F01BD4B8D4640EF66E210EDB
:102C3000F76EF7EC11F0040E596EFA0E5D6EE4ECCF
:102C400011F0592EFAD75A6A410E596EA4D59C0E2E
:102C5000F66E210EF76EF7EC11F0BE0EF66E210E39
:102C6000F76E166AF2BE168EF29E170E7A6F19EC88
:102C70000EF016BEF28E890EE96E44C05CF043C0C1
:102C80005BF042C05AF041C059F0050E5D6EA0DE07
:102C9000D90EF66E210EF76E166AF2BE168EF29EF1
:102CA000190E7A6F19EC0EF016BEF28E890EE96ECF
:102CB00048C05CF047C05BF046C05AF045C059F0D0
:102CC000050E5D6E85DEF60EF66E210EF76E166A47
:102CD000F2BE168EF29E180E7A6F19EC0EF016BE2A
:102CE000F28E890EE96E4CC05CF04BC05BF04AC0BE
:102CF0005AF049C059F0050E5D6E6ADE120EF66E8E
:102D0000220EF76E166AF2BE168EF29E030E7A6FD0
:102D100019EC0EF016BEF28EC00EF212000E06096D
:102D2000CA6EFF0ECB6E9E929D829EAA03D09EAA73
:082D3000FED7AE50FAD70300F4
:020000040030CA
:0E00000027CC3E1E0085A1000FC00FE00F4070
:00000001FF
;PIC18F4550
;CRC=951B  CREATED="26-Jan-24 18:52"
