:040000005AEF17F0AC
:08000800046ED8CF05F0E0CF33
:1000100006F00001E9CF0CF0EACF07F0E1CF08F0DD
:10002000E2CF09F0D9CF0AF0DACF0BF0F3CF12F01C
:10003000F4CF13F0FACF14F000C00EF001C00FF0AF
:1000400002C010F003C011F09DA22AEF00F09EB292
:1000500029EF10F00EC000F00FC001F010C002F048
:1000600011C003F00CC0E9FF07C0EAFF078E08C00B
:10007000E1FF09C0E2FF0AC0D9FF0BC0DAFF12C0DE
:10008000F3FF13C0F4FF14C0FAFF045006C0E0FFF2
:1000900005C0D8FF1000F76AA60FF66E000EF72213
:1000A0000900F55012007F00000000000000000071
:1000B0000000000000007F000000000000000000C1
:1000C0000000000000007F000000C69E9E96B9C49C
:1000D000C9FF020EC6BE05D09EA6FED7000EC5BC47
:1000E000010E016E1200C69CC586C5B6FED700B0D3
:1000F000C59A00A0C58AC588C5B8FED7C9CF01F08A
:100100001200C580C5B0FED7D8900401B335B86FD2
:10011000B96F0001DADFB4C4B9F4D7DFC582C5B264
:10012000FED7D8900401B3350109B86FB96F00014B
:10013000CCDFB6C403F00401B5C4E9FFB6C4EAFFDE
:10014000006A0001D0DF01C0EFFFC584C5B4FED74F
:100150001200ACC4B3F4AEC4B4F4040E0401B66F20
:10016000B20EB56F0001CDDFACC4B3F4ADC4B4F4CE
:10017000040E0401B66FB10EB56F0001C2DF0401B9
:10018000AFC4E9FFB0C4EAFFB1C4ECFFED52B2C4A2
:10019000EFFF00011200680E0401AC6F91C4ADF4D2
:1001A00092C4AEF494C4B0F493C4AFF40001D1DFB0
:1001B00012008E0E006EB1C401F0B0C402F0036AEA
:1001C00001AE05D0011E021E022A01E1012A0152E0
:1001D00009E102C001F0026A080E005E015202E16C
:1001E000006A0ED0D89001BE04D002360136000657
:1001F000F9D70401B1AF02D0000102D0019E000185
:1002000012000401BD51D8B4A5D0C96FC151D8B4F2
:10021000A1D0C95F05E37F0EC927D8B09BD006D017
:10022000810EC95FD8A096D0D8B494D0C9C400F0CC
:10023000016A026A036AC86BBEC4C7F4C78FBFC431
:10024000C6F4C0C4C5F4190EC96FC451C55F0DE230
:10025000010EC65F0AE2C75F08E2C85F06E2C82B6C
:10026000C72BC62BC451C52728D0C351C65F12E285
:10027000010EC75F0FE2C85F0DE2C82BC72BC35149
:10028000C627C451C52719E3C62B17E1C72B15E1B3
:10029000C82B13D0C2518009C75F0EE2010EC85FA0
:1002A0000BE2C82BC2518009C727C351C627E9E317
:1002B000C72BE7E1C82BE5D70380C92F01D00BD0AE
:1002C000D890C537C637C737C837D89003360236F7
:1002D0000136CA37BAD7CAA106D0D8900132023245
:1002E0000332CA3302D0000635E0CABF1ED0D89010
:1002F000C537C637C737C837C451C55F07E2010ED7
:10030000C65F04E2C75F02E2C85F1AE3C351C65F7B
:1003100005E2010EC75F02E2C85F12E3C251800925
:10032000C75F03E2010EC85F0BE3032A09E1022A5B
:1003300007E1012A05E1002A0DE001320232033211
:10034000BEC4C9F4C251C91BC9AF02D0018E06D0C8
:10035000019E04D0006A016A026A036A0001120069
:100360000401906B8F6B430E916F440E926F040EDD
:10037000946F8B0E936F00010EDF450E0401916F99
:10038000460E926F040E946F8D0E936F000103DF83
:10039000470E0401916F480E926F040E946F8F0EFA
:1003A000936F0001F8DE89C4E9FF8AC4EAFF8CC4B8
:1003B000B1F48BC4B0F40001FCDE03C0C0F402C091
:1003C000BFF401C0BEF400C0BDF40401C46BC36B34
:1003D000030EC26F850EC16F000113DF00C0EFFF77
:1003E00001C0ECFF02C0ECFF03C0ECFF040E0401EF
:1003F0008925E96E000E8A21EA6E8EC4B1F48DC49F
:10040000B0F40001D6DE03C0C0F402C0BFF401C0E6
:10041000BEF400C0BDF40401C46BC36B030EC26F15
:10042000850EC16F0001EDDE00C0EFFF01C0ECFFE3
:1004300002C0ECFF03C0ECFF080E04018925E96E41
:10044000000E8A21EA6E90C4B1F48FC4B0F40001AA
:10045000B0DE03C0C0F402C0BFF401C0BEF400C0EF
:10046000BDF40401C46BC36B030EC26F850EC16F74
:100470000001C7DE00C0EFFF01C0ECFF02C0ECFFCF
:1004800003C0ECFF1200680E0401AC6FA4C4ADF40D
:10049000A5C4AEF4A7C4B0F4A6C4AFF4000159DEFD
:1004A0001200800ED8A202D00401C21B0401C76B47
:1004B000C86BBEC4C6F4C251C61BBD51D8B4DFD090
:1004C000C56F006EC151D8B4E3D0C55FD8B483D036
:1004D0003EE3C2C4CBF4CB8FC3C4CAF4C4C4C9F4D2
:1004E000C86BD890CB33CA33C933C833C52FF8D7BC
:1004F000C6AF03D0C781E0D0C791C591C789040EAC
:10050000EA6EC00EE96EEBD0C799C6BF0AD0C5A18E
:1005100013D0CB33CA33C933C833002AD8B4C7D0B9
:100520000BD0CBBF0CD0D890C837C937CA37CB3720
:100530000006D8B4BCD0F5D7C78D6DD0C79DBEC45A
:10054000C6F4BEAF02D0CB8FABD0CB9FA9D0C1C475
:10055000C5F4C1C400F0BD51C55FBEC4CBF4CB8FA0
:10056000BFC4CAF4C0C4C9F4C86BD890CB33CA3373
:10057000C933C833C52FF8D7C6AF03D0C7839CD0C3
:10058000C793C591C78B040EEA6EC40EE96EA7D05F
:10059000C79BC6BF0AD0C5A113D0CB33CA33C9335A
:1005A000C833002AD8B483D00BD0CBBF0CD0D8909E
:1005B000C837C937CA37CB370006D8B478D0F5D793
:1005C000C78F29D0C79FC2C4C6F4C2AF02D0CB8F99
:1005D00067D0CB9F65D0C2C4CBF4CB8FC3C4CAF461
:1005E000C4C4C9F4C6AF04D0CB9FC78565D0C79536
:1005F000C86BC591040EEA6EC00EE96E70D0C6BF1E
:100600001CD0BEC4C6F4C5A106D0CB33CA33C9338F
:10061000C833002A4CE0C8AF0BD0C92B09E1CA2B64
:1006200007E1CB2B05E1CB33CA33C933002A3FE0C6
:10063000C7BD84D7C7BFC6D71CD0800ECB1BCBAFDE
:1006400004D03AD0C2C4C6F40AD0BEC4C6F4CB5358
:1006500006E1CA5304E1C95302E1006A21D0CBBFCD
:1006600008D0D890C837C937CA37CB37002EF7D74C
:100670001ED0C6AF02D0CB8F13D0CB9F11D0C1C438
:1006800000F0C2C4CBF4C3C4CAF4C4C4C9F408D0D3
:10069000BDC400F0BEC4CBF4BFC4CAF4C0C4C9F426
:1006A000CBC401F0CAC402F0C9C403F034D0006A5C
:1006B000016A026A036A2FD0C86BC91FCA1FCB1F09
:1006C000C81FC82B05E1C92B03E1CA2B01E1CB2BC5
:1006D000C7B112D7C7B354D7C7B589D7B3D7EF506F
:1006E000C92705E3CA2B03E1CB2BD8B4C581ED5252
:1006F000EF50CA2703E3CB2BD8B4C581ED52EF509E
:10070000EFBE01D0800ACB27D8B0C581C7B9FCD6CF
:10071000C7BB3ED774D7000112000401A36BA26BC4
:100720003B0EA46F3C0EA56F040EA76F9E0EA66F26
:100730000001A9DE3D0E0401A46F3E0EA56F040E5C
:10074000A76FA00EA66F00019EDE3F0E0401A46FEE
:10075000400EA56F040EA76FA20EA66F000193DED8
:100760009CC4E9FF9DC4EAFF9FC4B1F49EC4B0F4E9
:1007700000011FDD03C0C0F402C0BFF401C0BEF41D
:1007800000C0BDF40401C46BC36BC26B8B0EC16FA0
:10079000000137DD03C0A9F402C0A8F401C0A7F42A
:1007A00000C0A6F4EACFABF4E9CFAAF4D89203C014
:1007B000C0F402C0BFF401C0BEF400C0BDF40A0E14
:1007C0000401C46FD70EC36F230EC26F770EC16FC3
:1007D000000167DEABC4EAFFAAC4E9FF00C0EFFF77
:1007E00001C0ECFF02C0ECFF03C0ECFF040E0401EB
:1007F0009C25E96E000E9D21EA6EA1C4B1F4A0C44F
:10080000B0F40001D6DC03C0C0F402C0BFF401C0E4
:10081000BEF400C0BDF40401C46BC36BC26B8B0E8D
:10082000C16F0001EEDC03C0A9F402C0A8F401C04E
:10083000A7F400C0A6F4EACFABF4E9CFAAF4D882BB
:1008400003C0C0F402C0BFF401C0BEF400C0BDF4D8
:10085000FA0E0401C46FED0EC36F6B0EC26F780EFB
:10086000C16F00011EDEABC4EAFFAAC4E9FF00C0ED
:10087000EFFF01C0ECFF02C0ECFF03C0ECFF080E6D
:1008800004019C25E96E000E9D21EA6EA3C4B1F41B
:10089000A2C4B0F400018DDC03C0C0F402C0BFF4F8
:1008A00001C0BEF400C0BDF40401C46BC36BC26BD5
:1008B0008B0EC16F0001A5DC03C0A9F402C0A8F42F
:1008C00001C0A7F400C0A6F4EACFABF4E9CFAAF4C4
:1008D000D89203C0C0F402C0BFF401C0BEF400C08F
:1008E000BDF4790E0401C46F010EC36F760EC26FA2
:1008F0007A0EC16F0001D5DDABC4EAFFAAC4E9FFDF
:1009000000C0EFFF01C0ECFF02C0ECFF03C0ECFF32
:1009100075EF0AF00C0E0401AC6FA8C4ADF4A9C4C5
:10092000AEF4ABC4B0F4AAC4AFF4000112DC120000
:100930008E0E006EACC401F0ABC402F0036A01522B
:1009400009E102C001F0026A080E005E015202E1F4
:10095000006A08D0D89001BE04D0023601360006E5
:10096000F9D7019E12000401BD51D8B471D0006EB8
:10097000C151D8B46DD0002604E3810E002668E290
:1009800004D07F0E005E64E363E0BEC4C5F4C251D0
:10099000C51BBE8FC28FC051C403F4CFC7F4BF5173
:1009A000C303F4CF03F0F3CFC6F4C403F350C72757
:1009B000F450C623000E0322C051C303F350C727CF
:1009C000F450C623000E026A03220222BE51C40361
:1009D000F350C627F4500322000E0222BE51C30377
:1009E000F3500326F4500222000E016A0122C05186
:1009F000C203F350C627F4500322000E0222012244
:100A0000BF51C203F3500326F4500222000E01220C
:100A1000BE51C203F3500226F4500122002A01BE47
:100A200005D0C6370336023601360006000EC6AFC3
:100A30000AD0032A02220122015005E1025003E1FB
:100A4000035001E1002AC5BF018EC5AF019E04D04D
:100A5000006A016A026A036A000112000401A36BC2
:100A6000A26BF00EA76F680EB36F100EB46F040E7A
:100A7000B66FA40EB56F000181EC00F0680E0401A2
:100A8000B36F110EB46F040EB66FA50EB56F0001F3
:100A900081EC00F0680E0401B36F120EB46F040E07
:100AA000B66FA60EB56F000181EC00F00401A7A19E
:100AB0000DD00C0EB36F020EB46F040EB66FA70EFE
:100AC000B56F000181EC00F0F1D70401040EA86FAE
:100AD000030EA96F040EAB6F9E0EAA6F00011ADF02
:100AE000060E0401A86F050EA96F040EAB6FA00ED1
:100AF000AA6F00010FDF080E0401A86F070EA96F8F
:100B0000040EAB6FA20EAA6F000104DF04019CC4A7
:100B1000E9FF9DC4EAFF800EA45DAC6BAB6F0001E2
:100B200007DF03C0C0F402C0BFF401C0BEF400C0C0
:100B3000BDF40401C46BC36BC26B7E0EC16F0001B8
:100B400012DF03C0ADF402C0ACF401C0ABF400C0CE
:100B5000AAF403C0C0F402C0BFF401C0BEF400C0D8
:100B6000BDF40401C46BC36BC26B860EC16F000180
:100B700001EC01F003C0ADF402C0ACF401C0ABF471
:100B800000C0AAF4EACFAFF4E9CFAEF4D89203C024
:100B9000C0F402C0BFF401C0BEF400C0BDF4040143
:100BA000C46BC36BC26B7F0EC16F00017ADCAFC434
:100BB000EAFFAEC4E9FF03C0ADF402C0ACF401C06B
:100BC000ABF400C0AAF49FC4B1F49EC4B0F4D9EC55
:100BD00000F003C0C0F402C0BFF401C0BEF400C006
:100BE000BDF4ADC4C4F4ACC4C3F4ABC4C2F4AAC471
:100BF000C1F4B9DE00C0EFFF01C0ECFF02C0ECFFA2
:100C000003C0ECFF040E04019C25E96E000E9D213B
:100C1000EA6E800EA55DAC6BAB6F000189DE03C090
:100C2000C0F402C0BFF401C0BEF400C0BDF40401B2
:100C3000C46BC36BC26B7E0EC16F000194DE03C038
:100C4000ADF402C0ACF401C0ABF400C0AAF403C020
:100C5000C0F402C0BFF401C0BEF400C0BDF4040182
:100C6000C46BC36BC26B860EC16F000101EC01F057
:100C700003C0ADF402C0ACF401C0ABF400C0AAF4F0
:100C8000EACFAFF4E9CFAEF4D89203C0C0F402C00B
:100C9000BFF401C0BEF400C0BDF40401C46BC36B5B
:100CA000C26B7F0EC16F000151EC02F0AFC4EAFFCE
:100CB000AEC4E9FF03C0ADF402C0ACF401C0ABF4B4
:100CC00000C0AAF4A1C4B1F4A0C4B0F4D9EC00F0FF
:100CD00003C0C0F402C0BFF401C0BEF400C0BDF444
:100CE000ADC4C4F4ACC4C3F4ABC4C2F4AAC4C1F46C
:100CF0003ADE00C0EFFF01C0ECFF02C0ECFF03C012
:100D0000ECFF080E04019C25E96E000E9D21EA6EA1
:100D1000800EA65DAC6BAB6F00010ADE03C0C0F4B1
:100D200002C0BFF401C0BEF400C0BDF40401C46B36
:100D3000C36BC26B7E0EC16F000115DE03C0ADF444
:100D400002C0ACF401C0ABF400C0AAF403C0C0F40C
:100D500002C0BFF401C0BEF400C0BDF40401C46B06
:100D6000C36BC26B860EC16F000101EC01F003C0C2
:100D7000ADF402C0ACF401C0ABF400C0AAF4EACFF9
:100D8000AFF4E9CFAEF4D89203C0C0F402C0BFF410
:100D900001C0BEF400C0BDF40401C46BC36BC26BE0
:100DA0007F0EC16F000151EC02F0AFC4EAFFAEC488
:100DB000E9FF03C0ADF402C0ACF401C0ABF400C065
:100DC000AAF4A3C4B1F4A2C4B0F4D9EC00F003C0F7
:100DD000C0F402C0BFF401C0BEF400C0BDF4ADC495
:100DE000C4F4ACC4C3F4ABC4C2F4AAC4C1F4BBDD44
:100DF00000C0EFFF01C0ECFF02C0ECFF03C0ECFF3E
:100E00000C0E0401B36F090EB46F040EB66FA70E7B
:100E1000B56F000181EC00F07BEF0AF0BAC4C1F4B9
:100E20000401BE51C11BC1AF05D0D894D890BABF40
:100E3000D8802FD0BAC4C1F4BDC4C2F4B951C25FC6
:100E400006E0C1AF26D0D850010AD86E22D0BEC469
:100E5000C2F4BA51C25F06E0C1AF1BD0D850010A3C
:100E6000D86E17D0BFC4C2F4BB51C25F06E0C1AF99
:100E700010D0D850010AD86E0CD0C0C4C2F4BC51F6
:100E8000C25F06E0C1AF05D0D850010AD86E01D0CC
:100E9000D89000011200ABC4BCF4AAC4BBF4A9C42E
:100EA000BAF4A8C4B9F40401C06BBF6BBE6BBD6BD0
:100EB0000001B4DF01E205E1006A016A026A036A27
:100EC0007AD0ABC4AFF4AAC4AEF4A9C4ADF4A8C43C
:100ED000ACF4040E0401B56FAC0EB46FB4C4E9FFFA
:100EE000B5C4EAFFEF50B96BB86F7F0EB827000E9C
:100EF000B923D890B931B831B5C4EAFFB4C4E9FF19
:100F0000EF6EAFC4B3F4AEC4B2F4ADC4B1F4ACC4CC
:100F1000B0F4ABC4C0F4AAC4BFF4A9C4BEF4A8C45E
:100F2000BDF4AFC4C4F4AEC4C3F4ADC4C2F4ACC425
:100F3000C1F4000101EC01F0D892AFC4C0F4AEC41A
:100F4000BFF4ADC4BEF4ACC4BDF403C0C4F402C06D
:100F5000C3F401C0C2F400C0C1F451EC02F003C0FC
:100F6000AFF402C0AEF401C0ADF400C0ACF40401B3
:100F7000B4C4E9FFB5C4EAFFEF06B3C4BCF4B2C41D
:100F8000BBF4B1C4BAF4B0C4B9F4AFC4C0F4AEC4D5
:100F9000BFF4ADC4BEF4ACC4BDF400013FDFD8B4AF
:100FA00002D00401AED7B0C400F0B1C401F0B2C4A5
:100FB00002F0B3C403F012000401B891B893ABC4BB
:100FC000AFF4AAC4AEF4A9C4ADF4A8C4ACF4ABC4E5
:100FD000BCF4AAC4BBF4A9C4BAF4A8C4B9F4C06BE5
:100FE000BF6BBE6BBD6B000119DF06E30401B88166
:100FF000AD51800AAD6F00010401BC6BBB6BBA6BD5
:101000007F0EB96FAFC4C0F4AEC4BFF4ADC4BEF4BC
:10101000ACC4BDF4000102DF1CE30401C06BBF6B74
:10102000BE6B7F0EBD6FAFC4C4F4AEC4C3F4ADC419
:10103000C2F4ACC4C1F4000101EC01F003C0AFF490
:1010400002C0AEF401C0ADF400C0ACF40401B8833A
:1010500000010A0E0401C06F890EBF6F340EBE6F0F
:101060007C0EBD6FAFC4C4F4AEC4C3F4ADC4C2F44F
:10107000ACC4C1F4000177DC03C0BCF402C0BBF413
:1010800001C0BAF400C0B9F403C0C0F402C0BFF498
:1010900001C0BEF400C0BDF4AFC4C4F4AEC4C3F418
:1010A000ADC4C2F4ACC4C1F45EDC03C0BCF402C085
:1010B000BBF401C0BAF400C0B9F4D89203C0C0F4C4
:1010C00002C0BFF401C0BEF400C0BDF47C0E040138
:1010D000C46F790EC36F350EC26F810EC16F0001F0
:1010E00051EC02F003C0B3F402C0B2F401C0B1F499
:1010F00000C0B0F4B3C4C0F4B2C4BFF4B1C4BEF411
:10110000B0C4BDF4AFC4C4F4AEC4C3F4ADC4C2F43F
:10111000ACC4C1F428DC03C0BCF402C0BBF401C001
:10112000BAF400C0B9F403C0C0F402C0BFF401C0F7
:10113000BEF400C0BDF4AFC4C4F4AEC4C3F4ADC4C7
:10114000C2F4ACC4C1F40FDC03C0BCF402C0BBF4F5
:1011500001C0BAF400C0B9F4D89203C0C0F402C010
:10116000BFF401C0BEF400C0BDF43F0E0401C46F63
:10117000020EC36F330EC26F830EC16F000151ECBC
:1011800002F003C0B3F402C0B2F401C0B1F400C075
:10119000B0F4B3C4C0F4B2C4BFF4B1C4BEF4B0C4BC
:1011A000BDF4AFC4C4F4AEC4C3F4ADC4C2F4ACC4A3
:1011B000C1F4B3EC04F003C0BCF402C0BBF401C042
:1011C000BAF400C0B9F403C0C0F402C0BFF401C057
:1011D000BEF400C0BDF4AFC4C4F4AEC4C3F4ADC427
:1011E000C2F4ACC4C1F4B3EC04F003C0BCF402C05C
:1011F000BBF401C0BAF400C0B9F4D89203C0C0F483
:1012000002C0BFF401C0BEF400C0BDF4330E04013F
:10121000C46F8C0EC36F1E0EC26F830EC16F0001B0
:1012200051EC02F003C0B3F402C0B2F401C0B1F457
:1012300000C0B0F40401C06BBF6BBE6B7F0EBD6F0E
:10124000AFC4C4F4AEC4C3F4ADC4C2F4ACC4C1F4FE
:101250000001B3EC04F003C0BCF402C0BBF401C055
:10126000BAF400C0B9F403C0C0F402C0BFF401C0B6
:10127000BEF400C0BDF4AFC4C4F4AEC4C3F4ADC486
:10128000C2F4ACC4C1F4B3EC04F003C0BCF402C0BB
:10129000BBF401C0BAF400C0B9F4D89203C0C0F4E2
:1012A00002C0BFF401C0BEF400C0BDF41B0E0401B7
:1012B000C46FE40EC36F350EC26F820EC16F0001A2
:1012C00051EC02F003C0B7F402C0B6F401C0B5F4AB
:1012D00000C0B4F4B7C4C0F4B6C4BFF4B5C4BEF41F
:1012E000B4C4BDF4AFC4C4F4AEC4C3F4ADC4C2F45A
:1012F000ACC4C1F4B3EC04F003C0BCF402C0BBF452
:1013000001C0BAF400C0B9F403C0C0F402C0BFF415
:1013100001C0BEF400C0BDF4AFC4C4F4AEC4C3F495
:10132000ADC4C2F4ACC4C1F4B3EC04F003C0BCF46B
:1013300002C0BBF401C0BAF400C0B9F4D89203C033
:10134000C0F402C0BFF401C0BEF400C0BDF4A40EDE
:101350000401C46FDB0EC36F670EC26F830EC16FD3
:10136000000151EC02F003C0B7F402C0B6F401C0B2
:10137000B5F400C0B4F4B7C4C0F4B6C4BFF4B5C487
:10138000BEF4B4C4BDF4AFC4C4F4AEC4C3F4ADC4BD
:10139000C2F4ACC4C1F4B3EC04F003C0BCF402C0AA
:1013A000BBF401C0BAF400C0B9F403C0C0F402C079
:1013B000BFF401C0BEF400C0BDF4AFC4C4F4AEC4F9
:1013C000C3F4ADC4C2F4ACC4C1F4B3EC04F003C0C4
:1013D000BCF402C0BBF401C0BAF400C0B9F4D892A6
:1013E00003C0C0F402C0BFF401C0BEF400C0BDF42D
:1013F000330E0401C46F8C0EC36F1E0EC26F830EBA
:10140000C16F000151EC02F003C0B7F402C0B6F4A2
:1014100001C0B5F400C0B4F4AFC4C0F4AEC4BFF4AE
:10142000ADC4BEF4ACC4BDF4B3C4C4F4B2C4C3F41C
:10143000B1C4C2F4B0C4C1F4B3EC04F003C0BCF452
:1014400002C0BBF401C0BAF400C0B9F403C0C0F4D8
:1014500002C0BFF401C0BEF400C0BDF4B7C4C4F400
:10146000B6C4C3F4B5C4C2F4B4C4C1F401EC01F011
:1014700003C0B3F402C0B2F401C0B1F400C0B0F4D0
:101480000401B8A31DD0D882DB0EC06F0F0EBF6F52
:10149000490EBE6F7F0EBD6FB3C4C4F4B2C4C3F4B3
:1014A000B1C4C2F4B0C4C1F4000151EC02F003C0F5
:1014B000B3F402C0B2F401C0B1F400C0B0F404014E
:1014C000B8A103D0B151800AB16FB0C400F0B1C46B
:1014D00001F0B2C402F0B3C403F0000112008CC4E6
:1014E0009DF48BC49CF48DEF03F08EC49DF48DC4E9
:1014F0009CF42EEF05F004018DC4E9FF8EC4EAFFD1
:10150000EFCF9CF4ECCF9DF4ECCF9EF4ECCF9FF4A6
:10151000EACFA1F4E9CFA0F4D8829FC4C0F49EC45E
:10152000BFF49DC4BEF49CC4BDF43D0EC46F5A0EFE
:10153000C36F120EC26F870EC16F000151EC02F033
:10154000A1C4EAFFA0C4E9FF03C092F402C091F471
:1015500001C090F400C08FF4040E04018D25E96EE3
:10156000000E8E21EA6EEFCF9CF4ECCF9DF4ECCF11
:101570009EF4ECCF9FF4EACFA1F4E9CFA0F4D88297
:101580009FC4C0F49EC4BFF49DC4BEF49CC4BDF40B
:10159000EC0EC46FE10EC36F390EC26F870EC16FC0
:1015A000000151EC02F0A1C4EAFFA0C4E9FF03C0AE
:1015B00096F402C095F401C094F400C093F4080EB0
:1015C00004018D25E96E000E8E21EA6EEFCF9CF4AA
:1015D000ECCF9DF4ECCF9EF4ECCF9FF4EACFA1F4D6
:1015E000E9CFA0F4D8829FC4C0F49EC4BFF49DC4C8
:1015F000BEF49CC4BDF49A0EC46FF90EC36F830E83
:10160000C26F870EC16F000151EC02F0A1C4EAFF66
:10161000A0C4E9FF03C09AF402C099F401C098F491
:1016200000C097F404019B6B9B510208D8A0FAD02C
:101630009B51040DF350036A8D25E96E8E510320F2
:10164000EA6E9B510C0DF3509F6B9E6F9FC403F08D
:101650009E51F2CFA0F4F29E00014BEC00F0006E20
:101660000900F5CF01F00900F5CF02F00900F5CF30
:1016700003F00401A0BFF28EA06F03C0A1F4A26B1F
:10168000A36BA3C4C0F4A2C4BFF403C0BEF4BD6F77
:1016900092C4C4F491C4C3F490C4C2F48FC4C1F41E
:1016A0000001B3EC04F003C0A3F402C0A2F401C033
:1016B000A1F400C0A0F404019B510C0DF350A56BE4
:1016C000A46F040EA425016E000EA521036E015027
:1016D000F2CFA4F4F29E00014BEC00F0006E090082
:1016E000F5CF01F00900F5CF02F00900F5CF03F0C6
:1016F0000401A4BFF28EA46F03C0A5F4A66BA76B70
:10170000A7C4C0F4A6C4BFF403C0BEF4BD6F96C4A2
:10171000C4F495C4C3F494C4C2F493C4C1F40001E6
:10172000B3EC04F0EACFA5F4E9CFA4F4D892A3C4B3
:10173000C0F4A2C4BFF4A1C4BEF4A0C4BDF403C0ED
:10174000C4F402C0C3F401C0C2F400C0C1F451EC3F
:1017500002F0A5C4EAFFA4C4E9FF03C0A3F402C0D9
:10176000A2F401C0A1F400C0A0F404019B510C0D2F
:10177000F350A76BA66F080EA625016E000EA721D9
:10178000036E0150F2CFA6F4F29E00014BEC00F084
:10179000006E0900F5CF01F00900F5CF02F0090055
:1017A000F5CF03F00401A6BFF28EA66F03C0A7F425
:1017B000A86BA96BA9C4C0F4A8C4BFF403C0BEF44D
:1017C000BD6F9AC4C4F499C4C3F498C4C2F497C456
:1017D000C1F40001B3EC04F0EACFA7F4E9CFA6F41A
:1017E000D892A3C4C0F4A2C4BFF4A1C4BEF4A0C4E0
:1017F000BDF403C0C4F402C0C3F401C0C2F400C00D
:10180000C1F451EC02F0A7C4EAFFA6C4E9FF00C08E
:10181000EFFF01C0ECFF02C0ECFF03C0ECFF0401CE
:101820009B2B02D7040E8925016E000E8A21036EC0
:1018300001C09CF49D6F040E8B25E96E000E8C2177
:10184000EA6EEFCF9EF4ECCF9FF4ECCFA0F4ECCF98
:10185000A1F48BC4E9FF8CC4EAFFEFCFA2F4ECCF74
:10186000A3F4ECCFA4F4ECCFA5F48BC4E9FF8CC4B3
:10187000EAFFEFCF00F0ECCF01F0ECCF02F0ECCFBD
:1018800003F0A5C4C0F4A4C4BFF4A3C4BEF4A2C4AE
:10189000BDF403C0C4F402C0C3F401C0C2F400C06C
:1018A000C1F40001B3EC04F003C0A5F402C0A4F439
:1018B00001C0A3F400C0A2F4080E04018B25E96E58
:1018C000000E8C21EA6EEFCFA6F4ECCFA7F4ECCF9C
:1018D000A8F4ECCFA9F4080E8B25E96E000E8C213C
:1018E000EA6EEFCF00F0ECCF01F0ECCF02F0ECCFDE
:1018F00003F0A9C4C0F4A8C4BFF4A7C4BEF4A6C42E
:10190000BDF403C0C4F402C0C3F401C0C2F400C0FB
:10191000C1F40001B3EC04F0EACFA7F4E9CFA6F4D8
:10192000D892A5C4C0F4A4C4BFF4A3C4BEF4A2C496
:10193000BDF403C0C4F402C0C3F401C0C2F400C0CB
:10194000C1F451EC02F0A7C4EAFFA6C4E9FF03C04A
:10195000A5F402C0A4F401C0A3F400C0A2F403C023
:10196000ABF402C0AAF401C0A9F400C0A8F44BEC87
:1019700007F0A1C4C0F4A0C4BFF49FC4BEF49EC4C9
:10198000BDF403C0C4F402C0C3F401C0C2F400C07B
:10199000C1F401EC01F003C0A1F402C0A0F401C045
:1019A0009FF400C09EF403C0ABF402C0AAF401C0CF
:1019B000A9F400C0A8F4DCEC07F003C0A1F402C055
:1019C000A0F401C09FF400C09EF403C0C0F402C0A4
:1019D000BFF401C0BEF400C0BDF40401C46BC36B0E
:1019E000340EC26F860EC16F0001B3EC04F003C069
:1019F000A1F402C0A0F401C09FF400C09EF403C093
:101A0000C0F402C0BFF401C0BEF400C0BDF4DB0EE0
:101A10000401C46F0F0EC36F490EC26F800EC16FF9
:101A2000000101EC01F09DC4EAFF9CC4E9FF00C085
:101A3000EFFF01C0ECFF02C0ECFF03C0ECFF0401AC
:101A400089C49CF48AC49DF48BC4E9FF8CC4EAFF6A
:101A5000EFCF9EF4ECCF9FF4ECCFA0F4ECCFA1F449
:101A6000040E8B25E96E000E8C21EA6EEFCFA2F4F6
:101A7000ECCFA3F4ECCFA4F4ECCFA5F4040E8B25AB
:101A8000E96E000E8C21EA6EEFCF00F0ECCF01F092
:101A9000ECCF02F0ECCF03F0A5C4C0F4A4C4BFF4B3
:101AA000A3C4BEF4A2C4BDF403C0C4F402C0C3F412
:101AB00001C0C2F400C0C1F40001B3EC04F003C0E3
:101AC000A5F402C0A4F401C0A3F400C0A2F4080E5F
:101AD00004018B25E96E000E8C21EA6EEFCFA6F48F
:101AE000ECCFA7F4ECCFA8F4ECCFA9F4080E8B252B
:101AF000E96E000E8C21EA6EEFCF00F0ECCF01F022
:101B0000ECCF02F0ECCF03F0A9C4C0F4A8C4BFF43A
:101B1000A7C4BEF4A6C4BDF403C0C4F402C0C3F499
:101B200001C0C2F400C0C1F40001B3EC04F0EACF7C
:101B3000A7F4E9CFA6F4D892A5C4C0F4A4C4BFF416
:101B4000A3C4BEF4A2C4BDF403C0C4F402C0C3F471
:101B500001C0C2F400C0C1F451EC02F0A7C4EAFF16
:101B6000A6C4E9FF03C0A5F402C0A4F401C0A3F415
:101B700000C0A2F403C0ABF402C0AAF401C0A9F4EF
:101B800000C0A8F44BEC07F0A1C4C0F4A0C4BFF49B
:101B90009FC4BEF49EC4BDF403C0C4F402C0C3F429
:101BA00001C0C2F400C0C1F401EC01F003C0A1F413
:101BB00002C0A0F401C09FF400C09EF403C0ABF4C7
:101BC00002C0AAF401C0A9F400C0A8F4DCEC07F03C
:101BD00003C0A1F402C0A0F401C09FF400C09EF4B1
:101BE00003C0C0F402C0BFF401C0BEF400C0BDF425
:101BF0000401C46BC36BB40EC26F860EC16F0001CB
:101C0000B3EC04F003C0A1F402C0A0F401C09FF43F
:101C100000C09EF403C0C0F402C0BFF401C0BEF413
:101C200000C0BDF4DB0E0401C46F0F0EC36F490E7C
:101C3000C26F800EC16F000101EC01F09DC4EAFF8C
:101C40009CC4E9FF00C0EFFF01C0ECFF02C0ECFF45
:101C500003C0ECFF080E04018925016E000E8A21E5
:101C600001C09CF49D6F8DC4E9FF8EC4EAFFEFCFE5
:101C700000F0ECCF01F0ECCF02F0ECCF03F003C0AA
:101C8000A1F402C0A0F401C09FF400C09EF4040EB1
:101C90008D25E96E000E8E21EA6EEFCF00F0ECCFBD
:101CA00001F0ECCF02F0ECCF03F0A1C4C0F4A0C46B
:101CB000BFF49FC4BEF49EC4BDF403C0C4F402C00C
:101CC000C3F401C0C2F400C0C1F4000101EC01F092
:101CD00003C0A1F402C0A0F401C09FF400C09EF4B0
:101CE00003C0ABF402C0AAF401C0A9F400C0A8F478
:101CF000DCEC07F00401C06BBF6BBE6B7F0EBD6FE9
:101D000003C0C4F402C0C3F401C0C2F400C0C1F4F3
:101D10000001B3EC04F003C0A1F402C0A0F401C0C0
:101D20009FF400C09EF403C0C0F402C0BFF401C021
:101D3000BEF400C0BDF40401C46BC36B340EC26FAB
:101D4000860EC16F0001B3EC04F003C0A1F402C021
:101D5000A0F401C09FF400C09EF403C0C0F402C010
:101D6000BFF401C0BEF400C0BDF4DB0E0401C46FBB
:101D70000F0EC36F490EC26F800EC16F000101ECE0
:101D800001F09DC4EAFF9CC4E9FF00C0EFFF01C061
:101D9000ECFF02C0ECFF03C0ECFF3DEF10F0520E71
:101DA0000401C06F490EBF6F1D0EBE6F790EBD6F6F
:101DB0009CC4C4F49BC4C3F49AC4C2F499C4C1F4CF
:101DC0000001B3EC04F0D89294C4C0F493C4BFF4FF
:101DD00092C4BEF491C4BDF403C0C4F402C0C3F401
:101DE00001C0C2F400C0C1F451EC02F003C094F48D
:101DF00002C093F401C092F400C091F4D89298C448
:101E0000C0F497C4BFF496C4BEF495C4BDF4070EE5
:101E10000401C46F460EC36F410EC26F770EC16FCF
:101E2000000151EC02F003C098F402C097F401C025
:101E300096F400C095F498C4C0F497C4BFF496C457
:101E4000BEF495C4BDF40401C46BC36BC26B7F0EBA
:101E5000C16F0001B3EC04F003C0AAF402C0A9F4FE
:101E600001C0A8F400C0A7F40401C06BBF6BBE6B37
:101E70007F0EBD6F98C4C4F497C4C3F496C4C2F473
:101E800095C4C1F40001B3EC04F003C0AEF402C089
:101E9000ADF401C0ACF400C0ABF4D89203C0C0F400
:101EA00002C0BFF401C0BEF400C0BDF40401C46BA5
:101EB000C36B100EC26F820EC16F000151EC02F0B5
:101EC000AAC4C0F4A9C4BFF4A8C4BEF4A7C4BDF496
:101ED00003C0C4F402C0C3F401C0C2F400C0C1F422
:101EE00001EC01F003C0A6F402C0A5F401C0A4F403
:101EF00000C0A3F4D882A0C4C0F49FC4BFF49EC4A1
:101F0000BEF49DC4BDF494C4C4F493C4C3F492C499
:101F1000C2F491C4C1F451EC02F0A6C4C0F4A5C44B
:101F2000BFF4A4C4BEF4A3C4BDF403C0C4F402C08F
:101F3000C3F401C0C2F400C0C1F4B3EC04F0D89201
:101F400094C4C0F493C4BFF492C4BEF491C4BDF46D
:101F500003C0C4F402C0C3F401C0C2F400C0C1F4A1
:101F600051EC02F003C094F402C093F401C092F467
:101F700000C091F4D8820401C06BBF6BBE6B7F0EB2
:101F8000BD6FA6C4C4F4A5C4C3F4A4C4C2F4A3C45E
:101F9000C1F4000151EC02F003C0AAF402C0A9F49C
:101FA00001C0A8F400C0A7F403C0C0F402C0BFF48D
:101FB00001C0BEF400C0BDF498C4C4F497C4C3F417
:101FC00096C4C2F495C4C1F4B3EC04F003C098F411
:101FD00002C097F401C096F400C095F40401A1C4B6
:101FE000E9FFA2C4EAFF91C4EFFF92C4ECFF93C4DF
:101FF000ECFF94C4ECFF040EA125E96E000EA221B3
:10200000EA6E95C4EFFF96C4ECFF97C4ECFF98C44A
:10201000ECFF000112008E0E006E04018951005E7B
:102020008AC402F08BC401F0028E005209E0D890FD
:10203000025202E1015204E002320132002EF7D7CF
:102040008AAF05D0011E021E012AD8B4022A00015F
:10205000120004018A6B1D0E896F0001B0EC01F0C3
:1020600004018A6B4D0E896F8C6B350E8B6F8E6BF6
:10207000290E8D6F00016FEF0AF00401AC6B5DC09B
:10208000ABF4000198EC04F003C08CF402C08BF4B4
:1020900001C08AF400C089F4D88220C0C0F41FC0F7
:1020A000BFF41EC0BEF41DC0BDF448C0C4F447C098
:1020B000C3F446C0C2F445C0C1F451EC02F003C001
:1020C00090F402C08FF401C08EF400C08DF45CC0A7
:1020D00094F45BC093F45AC092F459C091F48CC448
:1020E00098F48BC497F48AC496F489C495F403C019
:1020F0009CF402C09BF401C09AF400C099F454C04F
:10210000A0F453C09FF452C09EF451C09DF404014A
:10211000A26B630EA16F000142DE66C05CF065C079
:102120005BF064C05AF063C059F06AC08CF469C0B7
:102130008BF468C08AF467C089F46DDF01C05DF07C
:102140000401AC6B62C0ABF4000198EC04F003C076
:102150008CF402C08BF401C08AF400C089F4D882E8
:1021600024C0C0F423C0BFF422C0BEF421C0BDF41B
:1021700044C0C4F443C0C3F442C0C2F441C0C1F47B
:1021800051EC02F003C090F402C08FF401C08EF451
:1021900000C08DF461C094F460C093F45FC092F409
:1021A0005EC091F48CC498F48BC497F48AC496F4FE
:1021B00089C495F403C09CF402C09BF401C09AF456
:1021C00000C099F450C0A0F44FC09FF44EC09EF4DC
:1021D0004DC09DF40401A26B630EA16F0001DFDD11
:1021E00066C061F065C060F064C05FF063C05EF01F
:1021F0006AC08CF469C08BF468C08AF467C089F443
:102200000ADF01C062F09E929E922AEF00F01B5BF3
:1022100033336D7374617274206F6620696E6974F4
:1022200020200A0D1B5B306D000043616C696272F7
:102230006174696F6E206F66204779726F206973D1
:10224000207374617274656420646F6E2774206DEE
:102250006F7665207468652073656E736F720A0D02
:10226000000043616C6962726174696F6E206F6611
:10227000204779726F2069732066696E697368659B
:10228000640A0D005261746543616C696272617425
:10229000696F6E5069746368203D20252E35662075
:1022A0002C205261746543616C6962726174696F5C
:1022B0006E526F6C6C203D20252E3566202C2052EE
:1022C00061746543616C6962726174696F6E5961B2
:1022D00077203D20252E3566200A0D007961773D57
:1022E00020256420205069746368203D20256420E7
:1022F000200A0D004D505539323530206973206F5A
:102300006E6C696E652E2E2E0A0D00004D505539EB
:10231000323530206973206E6F74206F6E6C696E79
:10232000652E2E2E0A0D0000414B383936332069B8
:1023300073206F6E6C696E652E2E2E0A0D00414B58
:1023400038393633206973206E6F74206F6E6C6974
:102350006E652E2E2E0A0D00307830332D3E3E2035
:10236000434F4E4649473A2025780A0D0000307801
:1023700030312D3E3E205057525F4D474D545F3116
:102380003A2025780A0D0000307830302D3E3E206E
:102390005057525F4D474D545F323A2025780A0D11
:1023A0000000307830322D3E3E20494E545F504977
:1023B0004E5F4346473A2025780A0D003078303783
:1023C000312D3E3E2057484F5F414D5F495F4D5094
:1023D00055393235303A2025780A0D003034382D01
:1023E0003E3E202057484F5F414D5F495F414B388B
:1023F0003936333A2025780A0D001B5B33336D479D
:1024000079726F203A2058203D20252E35662C20E9
:1024100059203D20252E35662C205A203D20252E82
:10242000356620286465672F7329202020091B5BEF
:10243000306D00001B5B33336D4D616720203A2007
:1024400058203D20252E35662C2059203D20252E54
:1024500035662C205A203D20252E356620287554BF
:1024600029202020202020091B5B306D00001B5BF1
:1024700033336D416363656C3A2058203D20252E2F
:1024800035662C2059203D20252E35662C205A20DB
:102490003D20252E35662028672920202020200A6F
:1024A0000D1B5B306D00040EEA6E6F0EE96EEF508F
:1024B0000DE0020E016E006A002EFED7012EFBD742
:1024C000970E006E002EFED7EF2EF3D712000900F4
:1024D000F5520DE0F6CF6CF4F7CF6DF4F5509EA8F1
:1024E000FED7AD6E6CC4F6FF6DC4F7FFF0D71200D7
:1024F000C580C5B0FED7D89004016C35706F166AE0
:10250000F2BE168EF29EB96F000165EC00F016BEA9
:10251000F28E166AF2BE168EF29E6DC4B9F465ECA8
:1025200000F016BEF28E166AF2BE168EF29E6EC4D1
:10253000B9F465EC00F016BEF28EC584C5B4FED7C2
:102540001200680E04016C6F1A0E6D6F030E6E6F31
:102550000001CEDF680E04016C6F6B0E6D6F010E13
:102560006E6F0001C5DF680E04016C6F6C0E6D6F3D
:102570006E6B0001BDDF680E04016C6F1C0E6D6F89
:10258000100E6E6F0001B4DF680E04016C6F1B0E3D
:102590006D6F080E6E6F0001ABDF680E04016C6F8B
:1025A000370E6D6F020E6E6F0001A2DF680E040120
:1025B0006C6F240E6D6F0D0E6E6F000199DF0C0EA7
:1025C00004016C6F0B0E6D6F010E6E6F000190DFDA
:1025D0000C0E04016C6F0A0E6D6F120E6E6F00010F
:1025E00087DF640E04016F6F00015DDF04016B6B18
:1025F000166AF2BE168EF29E680EB36F750EB46F39
:10260000040EB66F6B0EB56F000181EC00F016BEC4
:10261000F28E04016B51710808E1F40EF66E220E81
:10262000F76E000154DF07D004010C0EF66E230E86
:10263000F76E00014CDF166AF2BE168EF29E0C0E8B
:102640000401B36FB46B040EB66F6B0EB56F00016F
:1026500081EC00F016BEF28E04016B51480808E1CF
:10266000280EF66E230EF76E000131DF07D004014D
:102670003E0EF66E230EF76E000129DFC8EF17F04D
:102680000900F6CF6EF4F7CF6FF4F5509EA8FED791
:10269000AD6E6EC4F6FF6FC4F7FF04016D2F01D05D
:1026A00002D00001EDD70001120004016DBF10D06F
:1026B0000F0E006E6C3900160A0E005C03E2300E3D
:1026C000002602D06D51002600509EA8FED7AD6EA8
:1026D0000F0E6C170A0E6C5D02E2300E02D06D9F79
:1026E0006D516C276C519EA8FED7AD6E0001120093
:1026F00004016B6B166AF2BE168EF29E680EB36F03
:102700001A0EB46F040EB66F6B0EB56F000181EC3C
:1027100000F016BEF28E580EF66E230EF76E100EF7
:1027200004016D6F0001ACDF6BC46CF4570E040143
:102730006D6F0001BADF0A0E9EA8FED7AD6E0D0EBA
:102740009EA8FED7AD6E166AF2BE168EF29E680E79
:102750000401B36F6B0EB46F040EB66F6B0EB56FE2
:10276000000181EC00F016BEF28E6E0EF66E230EA6
:10277000F76E140E04016D6F000182DF6BC46CF400
:10278000570E04016D6F000190DF0A0E9EA8FED760
:10279000AD6E0D0E9EA8FED7AD6E166AF2BE168EF9
:1027A000F29E680E0401B36F6C0EB46F040EB66F28
:1027B0006B0EB56F000181EC00F016BEF28E880E34
:1027C000F66E230EF76E140E04016D6F000158DFD4
:1027D0006BC46CF4570E04016D6F000166DF0A0EC6
:1027E0009EA8FED7AD6E0D0E9EA8FED7AD6E166AE2
:1027F000F2BE168EF29E680E0401B36F370EB46FF0
:10280000040EB66F6B0EB56F000181EC00F016BEC2
:10281000F28EA20EF66E230EF76E150E04016D6F8A
:1028200000012EDF6BC46CF4570E04016D6F0001C4
:102830003CDF0A0E9EA8FED7AD6E0D0E9EA8FED7F9
:10284000AD6E166AF2BE168EF29E680E0401B36F6C
:10285000750EB46F040EB66F6B0EB56F000181EC90
:1028600000F016BEF28EBC0EF66E230EF76E1B0E37
:1028700004016D6F000104DF6BC46CF4570E04019A
:102880006D6F000112DF0A0E9EA8FED7AD6E0D0E11
:102890009EA8FED7AD6E166AF2BE168EF29E0C0E84
:1028A0000401B36FB46B040EB66F6B0EB56F00010D
:1028B00081EC00F016BEF28EDC0EF66E230EF76E83
:1028C000190E04016D6F0001DBDE6BC46CF4570E52
:1028D00004016D6F0001E9DE0A0E9EA8FED7AD6E01
:1028E0000D0E9EA8FED7AD6ECAEF17F004016E6BF9
:1028F0006D6B6E510708D8A0ACD004E16D51CF08C4
:10290000D8A0A7D0166AF2BE168EF29E8A6B1D0E54
:10291000896F0001B0EC01F016BEF28E040E0401C6
:102920006B25E96E000E6C21EA6EEACF76F4E9CFF2
:1029300075F4D892166AF2BE168EF29EEFCFBDF4F1
:10294000ECCFBEF4ECCFBFF4ECCFC0F420C0C4F4A5
:102950001FC0C3F41EC0C2F41DC0C1F4000151EC7D
:1029600002F016BEF28E76C4EAFF75C4E9FF00C01D
:10297000EFFF01C0ECFF02C0ECFF03C0ECFF04015D
:102980006BC4E9FF6CC4EAFFEACF76F4E9CF75F4D3
:10299000D892166AF2BE168EF29EEFCFBDF4ECCF3F
:1029A000BEF4ECCFBFF4ECCFC0F424C0C4F423C019
:1029B000C3F422C0C2F421C0C1F4000151EC02F002
:1029C00016BEF28E76C4EAFF75C4E9FF00C0EFFFC1
:1029D00001C0ECFF02C0ECFF03C0ECFF080E0401D5
:1029E0006B25E96E000E6C21EA6EEACF76F4E9CF32
:1029F00075F4D892166AF2BE168EF29EEFCFBDF431
:102A0000ECCFBEF4ECCFBFF4ECCFC0F428C0C4F4DC
:102A100027C0C3F426C0C2F425C0C1F4000151ECA4
:102A200002F016BEF28E76C4EAFF75C4E9FF00C05C
:102A3000EFFF01C0ECFF02C0ECFF03C0ECFF010E92
:102A400004016F6F00012FDD04016D2BD8B46E2BD4
:102A500050D7040E6B25E96E000E6C21EA6E166AE3
:102A6000F2BE168EF29EEFCFBDF4ECCFBEF4ECCFEB
:102A7000BFF4ECCFC0F4ED52ED52ED52C46BC36B1A
:102A80007A0EC26F890EC16F000101EC01F016BE13
:102A9000F28E00C0EFFF01C0ECFF02C0ECFF03C0EC
:102AA000ECFF04016BC4E9FF6CC4EAFF166AF2BED6
:102AB000168EF29EEFCFBDF4ECCFBEF4ECCFBFF498
:102AC000ECCFC0F4ED52ED52ED52C46BC36B7A0EF5
:102AD000C26F890EC16F000101EC01F016BEF28ECB
:102AE00000C0EFFF01C0ECFF02C0ECFF03C0ECFF31
:102AF000080E04016B25E96E000E6C21EA6E166A61
:102B0000F2BE168EF29EEFCFBDF4ECCFBEF4ECCF4A
:102B1000BFF4ECCFC0F4ED52ED52ED52C46BC36B79
:102B20007A0EC26F890EC16F000101EC01F016BE72
:102B3000F28E00C0EFFF01C0ECFF02C0ECFF03C04B
:102B4000ECFFE0EF17F004017851B608786F036AE4
:102B500079C47CF4798FD89079337A337B3303321C
:102B6000023201320032782FF6D77CAF0BD0001E34
:102B7000011E021E031E002AD8B4012AD8B4022A5C
:102B8000D8B4032A000141EF16F0D8B204D0040EE5
:102B9000EA6E800EE96E006A016A026A036A040145
:102BA000806B816B826B836B7F517E117D117C11F9
:102BB0002CE0200E846FD890783779377A377B37BE
:102BC00080378137823783377F51835D08E17E51BB
:102BD000825D05E17D51815D02E17C51805D0FE305
:102BE0007C51805F7D51D8A07D3D815F7E51D8A012
:102BF0007E3D825F7F51D8A07F3D835FD8800036C5
:102C0000013602360336842FD6D780C4EFFF81C445
:102C1000ECFF82C4ECFF83C4ECFF00011200E9501A
:102C20000401706F6F51726F22E0166AF2BE168E49
:102C3000F29E6EC4C0F46DC4BFF46CC4BEF46BC429
:102C4000BDF4C46BC36B200EC26F820EC16F000156
:102C5000B3EC04F016BEF28E03C06EF402C06DF445
:102C600001C06CF400C06BF40401722FDED76EC497
:102C70007BF46DC47AF46CC479F46BC478F400010D
:102C800062D703C06EF402C06DF401C06CF400C0E2
:102C90006BF404016EAF0DD07007708B6B1F6C1F4F
:102CA0006D1F6E1F6B2BD8B46C2BD8B46D2BD8B4A2
:102CB0006E2B3B0E776F9A0E766FCA0E756F746B24
:102CC0000A0E726F6F51D8B4702BD882040EEA6E60
:102CD0006B0EE96E6EC47BF46DC47AF46CC479F447
:102CE0006BC478F477C47FF476C47EF475C47DF445
:102CF00074C47CF4000149DF0150005213E1040167
:102D00006F29725DD8A402D000010CD070510DE083
:102D10000F0B725D01E03CE270BF3AD070BD05D090
:102D2000200E31D0200E0401701770AB0DD0709BB7
:102D30006F51D8A470070050706F2D0E9EA8FED75B
:102D4000AD6E7051006E706B6F51725D0BE1005093
:102D5000706F2E0E9EA8FED7AD6E7051006E200EC5
:102D60007017000E300E70AB0ED0709B6F51D8A450
:102D700070070050706F2D0E9EA8FED7AD6E70517B
:102D8000006E706B300E002600509EA8FED7AD6E10
:102D9000D89277C47BF476C47AF475C479F474C499
:102DA00078F47F6B7E6B7D6B0A0E7C6F0001EDDE2D
:102DB00003C077F402C076F401C075F400C074F467
:102DC0000401722F82D70001120004017451016ABC
:102DD000735D03E273C400F00CD0006A080E756FD7
:102DE000733700367451005CD8B0006E0136752F11
:102DF000F7D700011200200E04016EA9300E6F6F8C
:102E00006DC400F06DAF08D0001E002A00C06DF444
:102E10002D0E6F6F6E8F6E8101506DC473F4640E52
:102E2000746F0001D2DF00C06DF4300E0124040184
:102E3000706F6DC473F40A0E746F0001C6DF300E3C
:102E400000240401726F300E0124716F6FC400F012
:102E5000300E705D04E06E836EBF6E8512D06FC45D
:102E600070F4200E6F6F300E715D04E06E816EBFE6
:102E70006E8307D0D8A46E8104E170C471F4200E73
:102E8000706F6EB505D06EB307D06EB109D00CD09F
:102E90006F519EA8FED7AD6E70519EA8FED7AD6E45
:102EA00071519EA8FED7AD6E72519EA8FED7AD6E31
:102EB00000011200F86AD09E078EB886100EAF6E21
:102EC000000EB06EA60EAC6E900EAB6E9382938029
:102ED000040EC86E280EC66EC79EC79CC78C5C6A5F
:102EE0005B6A5A6A596A040E5D6E616B606B5F6A59
:102EF0005E6A626F18D00200170000010FB407FF6E
:102F0000406B00FFC000FFC000FFC0000480000055
:102F100000003C401D000840630002001700000252
:102F2000001700000000000EF86E2E0EF76EF60E71
:102F3000F66E0900F550006E000A13E00900F55026
:102F4000016EE8BE05D00F0BEA6E0900F5CFE9FF70
:102F500001BC090001AC0900F5CFEEFF004EE9D736
:102F6000F9D7F86A93829380020E04016B6FFA0E10
:102F70006F6F000153EC12F004016B2FF8D70E0EA7
:102F8000F66E220EF76E000167EC12F0A1EF12F060
:102F900078EF13F02A0EF66E220EF76E67EC12F041
:102FA000080E04016B6FFA0E6F6F000153EC12F004
:102FB00004016B2FF8D76C6B410E6B6F000196D438
:102FC000620EF66E220EF76E67EC12F0840EF66E4D
:102FD000220EF76E170E04016D6F000140EC13F026
:102FE000890EE96E44C06EF443C06DF442C06CF4C7
:102FF00041C06BF4050E04016F6F000110DE9F0EDF
:10300000F66E220EF76E190E04016D6F000140EC92
:1030100013F0890EE96E48C06EF447C06DF446C0E7
:103020006CF445C06BF4050E04016F6F0001F7DD11
:10303000BC0EF66E220EF76E180E04016D6F0001C5
:1030400040EC13F0890EE96E4CC06EF44BC06DF489
:103050004AC06CF449C06BF4050E04016F6F0001A7
:10306000DEDDD80EF66E220EF76E030E04016D6FD4
:10307000000140EC13F0C00EF212000E0609CA6EF9
:10308000FF0ECB6E9E929D82166AF2BE168EF29E47
:1030900058C08CF457C08BF456C08AF455C089F4DC
:1030A0000BEC10F016BEF28E01C06BF4166AF2BE85
:1030B000168EF29E61C08CF460C08BF45FC08AF4FF
:1030C0005EC089F40BEC10F016BEF28E01C06CF4F9
:1030D000DC0EF66E220EF76E050E04016D6F000118
:1030E00040EC13F06BC46DF4180E04016E6F000118
:1030F00082DEE30EF66E220EF76E0A0E04016D6F8D
:10310000000140EC13F06CC46DF4180E04016E6FF6
:10311000000171DEEF0EF66E220EF76E040E040152
:0C3120006D6F000140EC13F0AFD703000E
:0C7E2400264949493203017F01033F4019
:107E300040403F1F2040201F3F4038403F63140810
:107E4000146303047804036159494D43007F4141A1
:107E5000410204081020004141417F040201020454
:107E60004040404040000307080020545478407FC1
:107E7000284444383844444428384444287F3854FB
:107E800054541800087E090218A4A49C787F0804A2
:107E9000047800447D40002040403D007F1028448D
:107EA0000000417F40007C047804787C080404785A
:107EB0003844444438FC1824241818242418FC7C22
:107EC00008040408485454542404043F44243C4007
:107ED00040207C1C2040201C3C4030403C4428106A
:107EE00028444C9090907C4464544C4400083641A3
:107EF0000000007700000041360800020102040281
:107F0000000000000000005F0000000700070014F0
:107F10007F147F14242A7F2A1223130864623649AF
:107F20005620500008070300001C22410000412297
:107F30001C002A1C7F1C2A08083E0808008070309C
:107F4000000808080808000060600020100804020B
:107F50003E5149453E00427F400072494949462111
:107F600041494D331814127F1027454545393C4A85
:107F7000494931412111090736494949364649499C
:107F8000291E0000140000004034000000081422E4
:107F90004114141414140041221408020159090652
:107FA0003E415D594E7C1211127C7F494949363E53
:107FB000414141227F4141413E7F494949417F0939
:107FC0000909013E414151737F0808087F00417F44
:107FD00041002040413F017F081422417F40404042
:107FE000407F021C027F7F0408107F3E4141413EDA
:107FF0007F090909063E4151215E7F09192946FF83
:020000040030CA
:0E00000027CC3E1E0085A1000FC00FE00F4070
:00000001FF
;PIC18F4550
;CRC=AFAA  CREATED="26-Jan-24 19:24"
