:0400000042EF14F0C7
:08000800046ED8CF05F0E0CF33
:1000100006F00001E9CF0CF0EACF07F0E1CF08F0DD
:10002000E2CF09F0D9CF0AF0DACF0BF0F3CF12F01C
:10003000F4CF13F0FACF14F000C00EF001C00FF0AF
:1000400002C010F003C011F09DA22AEF00F09EB292
:100050003BEF0BF00EC000F00FC001F010C002F03B
:1000600011C003F00CC0E9FF07C0EAFF078E08C00B
:10007000E1FF09C0E2FF0AC0D9FF0BC0DAFF12C0DE
:10008000F3FF13C0F4FF14C0FAFF045006C0E0FFF2
:1000900005C0D8FF1000C69E9E96B8C0C9FF020ECC
:1000A000C6BE05D09EA6FED7000EC5BC010E016ED1
:1000B0001200C69CC586C5B6FED700B0C59A00A082
:1000C000C58AC588C5B8FED7C9CF01F01200C58062
:1000D000C5B0FED7D890B235B76FB86FDCDFB3C00C
:1000E000B8F0D9DFC582C5B2FED7D890B2350109C4
:1000F000B76FB86FD0DFB5C003F0B4C0E9FFB5C0CB
:10010000EAFF006AD6DF01C0EFFFC584C5B4FED7A1
:100110001200ABC0B2F0ADC0B3F0B56BB10EB46FAE
:10012000D6DFABC0B2F0ACC0B3F0B56BB00EB46FFD
:10013000CEDFAEC0E9FFAFC0EAFFB0C0ECFFED52CA
:10014000B1C0EFFF1200680EAB6FA3C0ACF0A4C04B
:10015000ADF0A6C0AFF0A5C0AEF0DBDF12008E0E92
:10016000006EAAC001F0A9C002F0036AAAAF05D0D0
:10017000011E021E022A01E1012A015209E102C008
:1001800001F0026A080E005E015202E1006A0AD024
:10019000D89001BE04D0023601360006F9D7AABFB6
:1001A00001D0019E1200C051D8B4A5D0CC6FC4516B
:1001B000D8B4A1D0CC5F05E37F0ECC27D8B09BD0BC
:1001C00006D0810ECC5FD8A096D0D8B494D0CCC045
:1001D00000F0016A026A036ACB6BC1C0CAF0CA8F21
:1001E000C2C0C9F0C3C0C8F0190ECC6FC751C85FF8
:1001F0000DE2010EC95F0AE2CA5F08E2CB5F06E2C8
:10020000CB2BCA2BC92BC751C82728D0C651C95FD1
:1002100012E2010ECA5F0FE2CB5F0DE2CB2BCA2BBD
:10022000C651C927C751C82719E3C92B17E1CA2BE3
:1002300015E1CB2B13D0C5518009CA5F0EE2010E28
:10024000CB5F0BE2CB2BC5518009CA27C651C9270A
:10025000E9E3CA2BE7E1CB2BE5D70380CC2F01D014
:100260000BD0D890C837C937CA37CB37D8900336A8
:1002700002360136CD37BAD7CDA106D0D89001329B
:1002800002320332CD3302D0000635E0CDBF1ED09E
:10029000D890C837C937CA37CB37C751C85F07E2CC
:1002A000010EC95F04E2CA5F02E2CB5F1AE3C651E6
:1002B000C95F05E2010ECA5F02E2CB5F12E3C551DE
:1002C0008009CA5F03E2010ECB5F0BE3032A09E159
:1002D000022A07E1012A05E1002A0DE0013202327B
:1002E0000332C1C0CCF0C551CC1BCCAF02D0018EC3
:1002F00006D0019E04D0006A016A026A036A1200F5
:10030000A26BA16B430EA36F440EA46FA66B9D0E50
:10031000A56F19DF450EA36F460EA46FA66B9F0E47
:10032000A56F11DF470EA36F480EA46FA66BA10E39
:10033000A56F09DF9BC0E9FF9CC0EAFF9EC0AAF041
:100340009DC0A9F00CDF03C0C3F002C0C2F001C021
:10035000C1F000C0C0F0C76BC66B030EC56F850E41
:10036000C46F21DF00C0EFFF01C0ECFF02C0ECFF53
:1003700003C0ECFF040E9B25E96E000E9C21EA6E83
:10038000A0C0AAF09FC0A9F0EADE03C0C3F002C07B
:10039000C2F001C0C1F000C0C0F0C76BC66B030E55
:1003A000C56F850EC46FFFDE00C0EFFF01C0ECFF1C
:1003B00002C0ECFF03C0ECFF080E9B25E96E000EA7
:1003C0009C21EA6EA2C0AAF0A1C0A9F0C8DE03C0B9
:1003D000C3F002C0C2F001C0C1F000C0C0F0C76BE2
:1003E000C66B030EC56F850EC46FDDDE00C0EFFF68
:1003F00001C0ECFF02C0ECFF03C0ECFF1200680E6E
:10040000AB6FA7C0ACF0A8C0ADF0AAC0AFF0A9C058
:10041000AEF07FDE1200800ED8B2C61BCB6BCC6B69
:10042000C2C0CAF0C651CA1BC151D8B4DCD0C96F12
:10043000006EC551D8B4E0D0C95FD8B481D03DE3D7
:10044000C6C0CFF0CF8FC7C0CEF0C8C0CDF0CC6B48
:10045000D890CF33CE33CD33CC33C92FF8D7CAAFF2
:1004600003D0CB81DDD0CB91C991CB89EA6AC40E90
:10047000E96EE9D0CB99CABF0AD0C9A113D0CF3356
:10048000CE33CD33CC33002AD8B4C5D00BD0CFBFB8
:100490000CD0D890CC37CD37CE37CF370006D8B474
:1004A000BAD0F5D7CB8D6BD0CB9DC2C0CAF0C2AF4E
:1004B00002D0CF8FA9D0CF9FA7D0C5C0C9F0C5C0EB
:1004C00000F0C151C95FC2C0CFF0CF8FC3C0CEF022
:1004D000C4C0CDF0CC6BD890CF33CE33CD33CC333A
:1004E000C92FF8D7CAAF03D0CB839AD0CB93C99189
:1004F000CB8BEA6AC80EE96EA6D0CB9BCABF0AD0E6
:10050000C9A113D0CF33CE33CD33CC33002AD8B4E6
:1005100082D00BD0CFBF0CD0D890CC37CD37CE37D0
:10052000CF370006D8B477D0F5D7CB8F28D0CB9F64
:10053000C6C0CAF0C6AF02D0CF8F66D0CF9F64D0FE
:10054000C6C0CFF0CF8FC7C0CEF0C8C0CDF0CAAF05
:1005500004D0CF9FCB8564D0CB95CC6BC991EA6A90
:10056000C40EE96E70D0CABF1CD0C2C0CAF0C9A107
:1005700006D0CF33CE33CD33CC33002A4CE0CCAFD2
:100580000BD0CD2B09E1CE2B07E1CF2B05E1CF33EB
:10059000CE33CD33002A3FE0CBBD86D7CBBFC7D704
:1005A0001CD0800ECF1BCFAF04D03AD0C6C0CAF04B
:1005B0000AD0C2C0CAF0CF5306E1CE5304E1CD53F6
:1005C00002E1006A21D0CFBF08D0D890CC37CD3718
:1005D000CE37CF37002EF7D71ED0CAAF02D0CF8F7D
:1005E00013D0CF9F11D0C5C000F0C6C0CFF0C7C098
:1005F000CEF0C8C0CDF008D0C1C000F0C2C0CFF06E
:10060000C3C0CEF0C4C0CDF0CFC001F0CEC002F068
:10061000CDC003F034D0006A016A026A036A2FD0A9
:10062000CC6BCD1FCE1FCF1FCC1FCC2B05E1CD2B0C
:1006300003E1CE2B01E1CF2BCBB115D7CBB356D7EE
:10064000CBB58AD7B3D7EF50CD2705E3CE2B03E147
:10065000CF2BD8B4C981ED52EF50CE2703E3CF2B77
:10066000D8B4C981ED52EF50EFBE01D0800ACF2738
:10067000D8B0C981CBB9FED6CBBB3FD774D7120057
:10068000A66BA56B3B0EA76F3C0EA86FAA6BA10EC5
:10069000A96FB5DE3D0EA76F3E0EA86FAA6BA30E25
:1006A000A96FADDE3F0EA76F400EA86FAA6BA50E17
:1006B000A96FA5DE9FC0E9FFA0C0EAFFA2C0AAF013
:1006C000A1C0A9F04CDD03C0C3F002C0C2F001C05C
:1006D000C1F000C0C0F0C76BC66BC56B8B0EC46F9A
:1006E00062DD03C0ACF002C0ABF001C0AAF000C0F4
:1006F000A9F0EACFAEF0E9CFADF0D89203C0C4F0D4
:1007000002C0C3F001C0C2F000C0C1F00A0EC86F41
:10071000D70EC76F230EC66F770EC56F7CDEAEC0D7
:10072000EAFFADC0E9FF00C0EFFF01C0ECFF02C06F
:10073000ECFF03C0ECFF040E9F25E96E000EA02124
:10074000EA6EA4C0AAF0A3C0A9F009DD03C0C3F0FB
:1007500002C0C2F001C0C1F000C0C0F0C76BC66BE0
:10076000C56B8B0EC46F1FDD03C0ACF002C0ABF0D5
:1007700001C0AAF000C0A9F0EACFAEF0E9CFADF019
:10078000D88203C0C4F002C0C3F001C0C2F000C0F0
:10079000C1F0FA0EC86FED0EC76F6B0EC66F780E04
:1007A000C56F39DEAEC0EAFFADC0E9FF00C0EFFFA4
:1007B00001C0ECFF02C0ECFF03C0ECFF080E9F2558
:1007C000E96E000EA021EA6EA6C0AAF0A5C0A9F0AD
:1007D000C6DC03C0C3F002C0C2F001C0C1F000C05B
:1007E000C0F0C76BC66BC56B8B0EC46FDCDC03C07F
:1007F000ACF002C0ABF001C0AAF000C0A9F0EACF93
:10080000AEF0E9CFADF0D89203C0C4F002C0C3F09F
:1008100001C0C2F000C0C1F0790EC86F010EC76FF1
:10082000760EC66F7A0EC56FF6DDAEC0EAFFADC0BC
:10083000E9FF00C0EFFF01C0ECFF02C0ECFF03C006
:10084000ECFFCEEF07F0C051D8B471D0006EC451A8
:10085000D8B46DD0002604E3810E002668E204D0EF
:100860007F0E005E64E363E0C1C0C8F0C551C81BE1
:10087000C18FC58FC351C703F4CFCAF0C251C6039D
:10088000F4CF03F0F3CFC9F0C703F350CA27F450F5
:10089000C923000E0322C351C603F350CA27F450E4
:1008A000C923000E026A03220222C151C703F3507A
:1008B000C927F4500322000E0222C151C603F3508F
:1008C0000326F4500222000E016A0122C351C5031F
:1008D000F350C927F4500322000E02220122C25114
:1008E000C503F3500326F4500222000E0122C15129
:1008F000C503F3500226F4500122002A01BE05D0A0
:10090000C9370336023601360006000EC9AF0AD0D9
:10091000032A02220122015005E1025003E10350A3
:1009200001E1002AC8BF018EC8AF019E04D0006A51
:10093000016A026A036A1200BDC0C4F0C151C41B3F
:10094000C4AF05D0D894D890BDBFD8802FD0BDC03B
:10095000C4F0C0C0C5F0BC51C55F06E0C4AF26D02E
:10096000D850010AD86E22D0C1C0C5F0BD51C55FB4
:1009700006E0C4AF1BD0D850010AD86E17D0C2C051
:10098000C5F0BE51C55F06E0C4AF10D0D850010A13
:10099000D86E0CD0C3C0C5F0BF51C55F06E0C4AF70
:1009A00005D0D850010AD86E01D0D8901200AEC040
:1009B000BFF0ADC0BEF0ACC0BDF0ABC0BCF0C36B0F
:1009C000C26BC16BC06BB8DF01E205E1006A016A6E
:1009D000026A036A71D0AEC0B2F0ADC0B1F0ACC073
:1009E000B0F0ABC0AFF0B86BAF0EB76FB7C0E9FFF8
:1009F000B8C0EAFFEF50BC6BBB6F7F0EBB27000E89
:100A0000BC23D890BC31BB31B8C0EAFFB7C0E9FF06
:100A1000EF6EB2C0B6F0B1C0B5F0B0C0B4F0AFC0C8
:100A2000B3F0AEC0C3F0ADC0C2F0ACC0C1F0ABC05B
:100A3000C0F0B2C0C7F0B1C0C6F0B0C0C5F0AFC022
:100A4000C4F0D3EC00F0D892B2C0C4F0B1C0C3F08F
:100A5000B0C0C2F0AFC0C1F003C0C8F002C0C7F060
:100A600001C0C6F000C0C5F0D6DC03C0B2F002C0C1
:100A7000B1F001C0B0F000C0AFF0B7C0E9FFB8C03E
:100A8000EAFFEF06B6C0BFF0B5C0BEF0B4C0BDF01F
:100A9000B3C0BCF0B2C0C3F0B1C0C2F0B0C0C1F0CE
:100AA000AFC0C0F049DFB5E1B3C000F0B4C001F0A1
:100AB000B5C002F0B6C003F01200BB91BB93AEC04C
:100AC000B2F0ADC0B1F0ACC0B0F0ABC0AFF0AEC0F2
:100AD000BFF0ADC0BEF0ACC0BDF0ABC0BCF0C36BEE
:100AE000C26BC16BC06B28DF04E3BB81B051800ACD
:100AF000B06FBF6BBE6BBD6B7F0EBC6FB2C0C3F07F
:100B0000B1C0C2F0B0C0C1F0AFC0C0F015DF18E393
:100B1000C36BC26BC16B7F0EC06FB2C0C7F0B1C0F8
:100B2000C6F0B0C0C5F0AFC0C4F0D3EC00F003C055
:100B3000B2F002C0B1F001C0B0F000C0AFF0BB83B2
:100B40000A0EC36F890EC26F340EC16F7C0EC06F68
:100B5000B2C0C7F0B1C0C6F0B0C0C5F0AFC0C4F0FD
:100B600072DE03C0BFF002C0BEF001C0BDF000C025
:100B7000BCF003C0C3F002C0C2F001C0C1F000C0AD
:100B8000C0F0B2C0C7F0B1C0C6F0B0C0C5F0AFC0D1
:100B9000C4F059DE03C0BFF002C0BEF001C0BDF01A
:100BA00000C0BCF0D89203C0C4F002C0C3F001C0C2
:100BB000C2F000C0C1F07C0EC86F790EC76F350E51
:100BC000C66F810EC56F27DC03C0B6F002C0B5F05A
:100BD00001C0B4F000C0B3F0B6C0C3F0B5C0C2F0FD
:100BE000B4C0C1F0B3C0C0F0B2C0C7F0B1C0C6F06D
:100BF000B0C0C5F0AFC0C4F026DE03C0BFF002C075
:100C0000BEF001C0BDF000C0BCF003C0C3F002C024
:100C1000C2F001C0C1F000C0C0F0B2C0C7F0B1C0A6
:100C2000C6F0B0C0C5F0AFC0C4F00DDE03C0BFF069
:100C300002C0BEF001C0BDF000C0BCF0D89203C03D
:100C4000C4F002C0C3F001C0C2F000C0C1F03F0E4A
:100C5000C86F020EC76F330EC66F830EC56F0BECE5
:100C600002F003C0B6F002C0B5F001C0B4F000C09D
:100C7000B3F0B6C0C3F0B5C0C2F0B4C0C1F0B3C0E9
:100C8000C0F0B2C0C7F0B1C0C6F0B0C0C5F0AFC0D0
:100C9000C4F0D9DD03C0BFF002C0BEF001C0BDF09A
:100CA00000C0BCF003C0C3F002C0C2F001C0C1F07C
:100CB00000C0C0F0B2C0C7F0B1C0C6F0B0C0C5F04F
:100CC000AFC0C4F0C0DD03C0BFF002C0BEF001C0C1
:100CD000BDF000C0BCF0D89203C0C4F002C0C3F0A5
:100CE00001C0C2F000C0C1F0330EC86F8C0EC76FD8
:100CF0001E0EC66F830EC56F0BEC02F003C0B6F07C
:100D000002C0B5F001C0B4F000C0B3F0C36BC26B59
:100D1000C16B7F0EC06FB2C0C7F0B1C0C6F0B0C02B
:100D2000C5F0AFC0C4F08FDD03C0BFF002C0BEF09D
:100D300001C0BDF000C0BCF003C0C3F002C0C2F0EF
:100D400001C0C1F000C0C0F0B2C0C7F0B1C0C6F071
:100D5000B0C0C5F0AFC0C4F076DD03C0BFF002C0C4
:100D6000BEF001C0BDF000C0BCF0D89203C0C4F01A
:100D700002C0C3F001C0C2F000C0C1F01B0EC86FBA
:100D8000E40EC76F350EC66F820EC56F0BEC02F016
:100D900003C0BAF002C0B9F001C0B8F000C0B7F0AB
:100DA000BAC0C3F0B9C0C2F0B8C0C1F0B7C0C0F09B
:100DB000B2C0C7F0B1C0C6F0B0C0C5F0AFC0C4F09B
:100DC00042DD03C0BFF002C0BEF001C0BDF000C0F4
:100DD000BCF003C0C3F002C0C2F001C0C1F000C04B
:100DE000C0F0B2C0C7F0B1C0C6F0B0C0C5F0AFC06F
:100DF000C4F029DD03C0BFF002C0BEF001C0BDF0E9
:100E000000C0BCF0D89203C0C4F002C0C3F001C05F
:100E1000C2F000C0C1F0A40EC86FDB0EC76F670E32
:100E2000C66F830EC56F0BEC02F003C0BAF002C0B0
:100E3000B9F001C0B8F000C0B7F0BAC0C3F0B9C093
:100E4000C2F0B8C0C1F0B7C0C0F0B2C0C7F0B1C006
:100E5000C6F0B0C0C5F0AFC0C4F0F5DC03C0BFF051
:100E600002C0BEF001C0BDF000C0BCF003C0C3F0C2
:100E700002C0C2F001C0C1F000C0C0F0B2C0C7F0F3
:100E8000B1C0C6F0B0C0C5F0AFC0C4F0DCDC03C078
:100E9000BFF002C0BEF001C0BDF000C0BCF0D892EF
:100EA00003C0C4F002C0C3F001C0C2F000C0C1F072
:100EB000330EC86F8C0EC76F1E0EC66F830EC56FC4
:100EC0000BEC02F003C0BAF002C0B9F001C0B8F0F8
:100ED00000C0B7F0B2C0C3F0B1C0C2F0B0C0C1F042
:100EE000AFC0C0F0B6C0C7F0B5C0C6F0B4C0C5F062
:100EF000B3C0C4F0A8DC03C0BFF002C0BEF001C0A4
:100F0000BDF000C0BCF003C0C3F002C0C2F001C01D
:100F1000C1F000C0C0F0BAC0C7F0B9C0C6F0B8C0D8
:100F2000C5F0B7C0C4F0D3EC00F003C0B6F002C007
:100F3000B5F001C0B4F000C0B3F0BBA31BD0D882A1
:100F4000DB0EC46F0F0EC36F490EC26F7F0EC16FF1
:100F5000B6C0C8F0B5C0C7F0B4C0C6F0B3C0C5F0E5
:100F60000BEC02F003C0B6F002C0B5F001C0B4F063
:100F700000C0B3F0BBA103D0B451800AB46FB3C0BA
:100F800000F0B4C001F0B5C002F0B6C003F012002A
:100F90009EC0A0F09DC09FF040EF03F0040E9B2583
:100FA000016E000E9C21036E01C09FF0A06F040E25
:100FB0009D25E96E000E9E21EA6EEFCFA1F0ECCFE9
:100FC000A2F0ECCFA3F0ECCFA4F09DC0E9FF9EC04F
:100FD000EAFFEFCFA5F0ECCFA6F0ECCFA7F0ECCF77
:100FE000A8F09DC0E9FF9EC0EAFFEFCF00F0ECCF74
:100FF00001F0ECCF02F0ECCF03F0A8C0C3F0A7C023
:10100000C2F0A6C0C1F0A5C0C0F003C0C7F002C0C6
:10101000C6F001C0C5F000C0C4F015DC03C0A8F0E4
:1010200002C0A7F001C0A6F000C0A5F0080E9D25E3
:10103000E96E000E9E21EA6EEFCFA9F0ECCFAAF088
:10104000ECCFABF0ECCFACF0080E9D25E96E000EB6
:101050009E21EA6EEFCF00F0ECCF01F0ECCF02F072
:10106000ECCF03F0ACC0C3F0ABC0C2F0AAC0C1F07B
:10107000A9C0C0F003C0C7F002C0C6F001C0C5F0EF
:1010800000C0C4F023EC04F0EACFAAF0E9CFA9F045
:10109000D892A8C0C4F0A7C0C3F0A6C0C2F0A5C033
:1010A000C1F003C0C8F002C0C7F001C0C6F000C064
:1010B000C5F00BEC02F0AAC0EAFFA9C0E9FF03C02B
:1010C000A8F002C0A7F001C0A6F000C0A5F003C0C0
:1010D000AEF002C0ADF001C0ACF000C0ABF067DC18
:1010E000A4C0C3F0A3C0C2F0A2C0C1F0A1C0C0F0B0
:1010F00003C0C7F002C0C6F001C0C5F000C0C4F014
:10110000D3EC00F003C0A4F002C0A3F001C0A2F031
:1011100000C0A1F003C0AEF002C0ADF001C0ACF061
:1011200000C0ABF0CADC03C0A4F002C0A3F001C051
:10113000A2F000C0A1F003C0C3F002C0C2F001C021
:10114000C1F000C0C0F0C76BC66B340EC56F860E11
:10115000C46F23EC04F003C0A4F002C0A3F001C0EC
:10116000A2F000C0A1F003C0C3F002C0C2F001C0F1
:10117000C1F000C0C0F0DB0EC76F0F0EC66F490E86
:10118000C56F800EC46FD3EC00F0A0C0EAFF9FC013
:10119000E9FF00C0EFFF01C0ECFF02C0ECFF03C09D
:1011A000ECFF9BC09FF09CC0A0F09DC0E9FF9EC0DB
:1011B000EAFFEFCFA1F0ECCFA2F0ECCFA3F0ECCFA1
:1011C000A4F0040E9D25E96E000E9E21EA6EEFCF7D
:1011D000A5F0ECCFA6F0ECCFA7F0ECCFA8F0040E72
:1011E0009D25E96E000E9E21EA6EEFCF00F0ECCF58
:1011F00001F0ECCF02F0ECCF03F0A8C0C3F0A7C021
:10120000C2F0A6C0C1F0A5C0C0F003C0C7F002C0C4
:10121000C6F001C0C5F000C0C4F023EC04F003C068
:10122000A8F002C0A7F001C0A6F000C0A5F0080E0B
:101230009D25E96E000E9E21EA6EEFCFA9F0ECCF5E
:10124000AAF0ECCFABF0ECCFACF0080E9D25E96E28
:10125000000E9E21EA6EEFCF00F0ECCF01F0ECCF54
:1012600002F0ECCF03F0ACC0C3F0ABC0C2F0AAC038
:10127000C1F0A9C0C0F003C0C7F002C0C6F001C0F1
:10128000C5F000C0C4F023EC04F0EACFAAF0E9CF27
:10129000A9F0D892A8C0C4F0A7C0C3F0A6C0C2F0FD
:1012A000A5C0C1F003C0C8F002C0C7F001C0C6F0BD
:1012B00000C0C5F00BEC02F0AAC0EAFFA9C0E9FF2C
:1012C00003C0A8F002C0A7F001C0A6F000C0A5F0BE
:1012D00003C0AEF002C0ADF001C0ACF000C0ABF096
:1012E000D7EC04F0A4C0C3F0A3C0C2F0A2C0C1F008
:1012F000A1C0C0F003C0C7F002C0C6F001C0C5F075
:1013000000C0C4F0D3EC00F003C0A4F002C0A3F00E
:1013100001C0A2F000C0A1F003C0AEF002C0ADF069
:1013200001C0ACF000C0ABF05DEC05F003C0A4F070
:1013300002C0A3F001C0A2F000C0A1F003C0C3F03E
:1013400002C0C2F001C0C1F000C0C0F0C76BC66BE4
:10135000B40EC56F860EC46F23EC04F003C0A4F076
:1013600002C0A3F001C0A2F000C0A1F003C0C3F00E
:1013700002C0C2F001C0C1F000C0C0F0DB0EC76FF8
:101380000F0EC66F490EC56F800EC46FD3EC00F010
:10139000A0C0EAFF9FC0E9FF00C0EFFF01C0ECFF63
:1013A00002C0ECFF03C0ECFF49EF0BF08E0E006EA5
:1013B0009CC001F09BC002F0036A015209E102C027
:1013C00001F0026A080E005E015202E1006A08D0D4
:1013D000D89001BE04D0023601360006F9D7019E2E
:1013E0001200520EC36F490EC26F1D0EC16F790EEF
:1013F000C06FAEC0C7F0ADC0C6F0ACC0C5F0ABC0EA
:10140000C4F023EC04F0D892A6C0C4F0A5C0C3F089
:10141000A4C0C2F0A3C0C1F003C0C8F002C0C7F0AE
:1014200001C0C6F000C0C5F00BEC02F003C0A6F08E
:1014300002C0A5F001C0A4F000C0A3F0D892AAC0D9
:10144000C4F0A9C0C3F0A8C0C2F0A7C0C1F0070E85
:10145000C86F460EC76F410EC66F770EC56F0BEC97
:1014600002F003C0AAF002C0A9F001C0A8F000C0B9
:10147000A7F0AAC0C3F0A9C0C2F0A8C0C1F0A7C01D
:10148000C0F0C76BC66BC56B7F0EC46F23EC04F056
:1014900003C0BCF002C0BBF001C0BAF000C0B9F09C
:1014A000C36BC26BC16B7F0EC06FAAC0C7F0A9C06F
:1014B000C6F0A8C0C5F0A7C0C4F023EC04F003C078
:1014C000C0F002C0BFF001C0BEF000C0BDF0D892B5
:1014D00003C0C4F002C0C3F001C0C2F000C0C1F03C
:1014E000C86BC76B100EC66F820EC56F0BEC02F097
:1014F000BCC0C3F0BBC0C2F0BAC0C1F0B9C0C0F03C
:1015000003C0C7F002C0C6F001C0C5F000C0C4F0FF
:10151000D3EC00F003C0B8F002C0B7F001C0B6F0E1
:1015200000C0B5F0D882B2C0C4F0B1C0C3F0B0C042
:10153000C2F0AFC0C1F0A6C0C8F0A5C0C7F0A4C03B
:10154000C6F0A3C0C5F00BEC02F0B8C0C3F0B7C042
:10155000C2F0B6C0C1F0B5C0C0F003C0C7F002C051
:10156000C6F001C0C5F000C0C4F023EC04F0D8926E
:10157000A6C0C4F0A5C0C3F0A4C0C2F0A3C0C1F00F
:1015800003C0C8F002C0C7F001C0C6F000C0C5F07B
:101590000BEC02F003C0A6F002C0A5F001C0A4F05D
:1015A00000C0A3F0D882C46BC36BC26B7F0EC16F47
:1015B000B8C0C8F0B7C0C7F0B6C0C6F0B5C0C5F077
:1015C0000BEC02F003C0BCF002C0BBF001C0BAF0EB
:1015D00000C0B9F003C0C3F002C0C2F001C0C1F046
:1015E00000C0C0F0AAC0C7F0A9C0C6F0A8C0C5F02E
:1015F000A7C0C4F023EC04F003C0AAF002C0A9F015
:1016000001C0A8F000C0A7F0B3C0E9FFB4C0EAFF72
:10161000A3C0EFFFA4C0ECFFA5C0ECFFA6C0ECFF89
:10162000040EB325E96E000EB421EA6EA7C0EFFFE9
:10163000A8C0ECFFA9C0ECFFAAC0ECFF12008E0E00
:10164000006E9B51005E9CC002F09DC001F0028EB6
:10165000005209E0D890025202E1015204E0023245
:101660000132002EF7D79CAF05D0011E021E012AC1
:10167000D8B4022A120096948D749C6B1D0E9B6F39
:1016800080EC01F09C6B4D0E9B6F9E6B350E9D6F39
:101690007FD49C6B5DC09BF089DE03C09EF002C0CE
:1016A0009DF001C09CF000C09BF0D88220C0C4F027
:1016B0001FC0C3F01EC0C2F01DC0C1F048C0C8F0BA
:1016C00047C0C7F046C0C6F045C0C5F00BEC02F0FD
:1016D00003C0A2F002C0A1F001C0A0F000C09FF0C2
:1016E0005CC0A6F05BC0A5F05AC0A4F059C0A3F03E
:1016F0009EC0AAF09DC0A9F09CC0A8F09BC0A7F016
:1017000003C0AEF002C0ADF001C0ACF000C0ABF061
:1017100054C0B2F053C0B1F052C0B0F051C0AFF0FD
:10172000B46B630EB36F5DDE66C05CF065C05BF0EA
:1017300064C05AF063C059F06AC09EF069C09DF061
:1017400068C09CF067C09BF07ADF01C05DF09C6BC5
:1017500062C09BF02BDE03C09EF002C09DF001C072
:101760009CF000C09BF0D88224C0C4F023C0C3F01A
:1017700022C0C2F021C0C1F044C0C8F043C0C7F0CD
:1017800042C0C6F041C0C5F00BEC02F003C0A2F0AD
:1017900002C0A1F001C0A0F000C09FF061C0A6F09F
:1017A00060C0A5F05FC0A4F05EC0A3F09EC0AAF028
:1017B0009DC0A9F09CC0A8F09BC0A7F003C0AEF0EC
:1017C00002C0ADF001C0ACF000C0ABF050C0B2F050
:1017D0004FC0B1F04EC0B0F04DC0AFF0B46B630E6F
:1017E000B36FFFDD66C061F065C060F064C05FF09C
:1017F00063C05EF06AC09EF069C09DF068C09CF056
:1018000067C09BF01CDF01C062F09E929E922AEF9F
:1018100000F01B5B33336D7374617274206F66204C
:10182000696E697420200A0D1B5B306D00004361F6
:101830006C6962726174696F6E206F66204779729D
:101840006F206973207374617274656420646F6EB5
:101850002774206D6F7665207468652073656E73DC
:101860006F720A0D000043616C6962726174696F86
:101870006E206F66204779726F2069732066696EEB
:1018800069736865640A0D005261746543616C692F
:1018900062726174696F6E5069746368203D2025BF
:1018A0002E3566202C205261746543616C6962722A
:1018B0006174696F6E526F6C6C203D20252E356609
:1018C000202C205261746543616C69627261746995
:1018D0006F6E596177203D20252E3566200A0D0058
:1018E000526F6C6C203D2025642020506974636821
:1018F000203D20256420200A0D00526F6C6C61632E
:1019000063203D202564202050697463686163630F
:10191000203D20256420200A0D004D5055393235D8
:1019200030206973206F6E6C696E652E2E2E0A0D45
:1019300000004D505539323530206973206E6F7478
:10194000206F6E6C696E652E2E2E0A0D0000414BC5
:1019500038393633206973206F6E6C696E652E2EB0
:101960002E0A0D00414B38393633206973206E6FD3
:1019700074206F6E6C696E652E2E2E0A0D00307805
:1019800030332D3E3E20434F4E4649473A2025787E
:101990000A0D0000307830312D3E3E205057525F06
:1019A0004D474D545F313A2025780A0D00003078BC
:1019B00030302D3E3E205057525F4D474D545F32E0
:1019C0003A2025780A0D0000307830322D3E3E2036
:1019D000494E545F50494E5F4346473A2025780AA6
:1019E0000D0030783037312D3E3E2057484F5F4153
:1019F0004D5F495F4D5055393235303A2025780AD0
:101A00000D003034382D3E3E202057484F5F414D69
:101A10005F495F414B383936333A2025780A0D004B
:101A20001B5B33336D4779726F203A2058203D207D
:101A3000252E35662C2059203D20252E35662C205C
:101A40005A203D20252E356620286465672F73298E
:101A5000202020091B5B306D00001B5B33336D4D74
:101A6000616720203A2058203D20252E35662C2005
:101A700059203D20252E35662C205A203D20252E2C
:101A800035662028755429202020202020091B5B42
:101A9000306D00001B5B33336D416363656C3A202E
:101AA00058203D20252E35662C2059203D20252EFE
:101AB00035662C205A203D20252E356620286729A2
:101AC00020202020200A0D1B5B306D00EA6A7B0E6F
:101AD000E96EEF500DE0020E016E006A002EFED797
:101AE000012EFBD7970E006E002EFED7EF2EF3D7F8
:101AF00012000900F5520DE0F6CF78F0F7CF79F03B
:101B0000F5509EA8FED7AD6E78C0F6FF79C0F7FFFE
:101B1000F0D71200C580C5B0FED7D89078357C6F5D
:101B2000166AF2BE168EF29EB86F4BEC00F016BE2F
:101B3000F28E166AF2BE168EF29E79C0B8F04BECA9
:101B400000F016BEF28E166AF2BE168EF29E7AC0B3
:101B5000B8F04BEC00F016BEF28EC584C5B4FED7CB
:101B60001200680E786F1A0E796F030E7A6FD2DF4B
:101B7000680E786F6B0E796F010E7A6FCBDF680E8F
:101B8000786F6C0E796F7A6BC5DF680E786F1C0EFC
:101B9000796F100E7A6FBEDF680E786F1B0E796F4B
:101BA000080E7A6FB7DF680E786F370E796F020E06
:101BB0007A6FB0DF680E786F240E796F0D0E7A6F32
:101BC000A9DF0C0E786F0B0E796F010E7A6FA2DF12
:101BD0000C0E786F0A0E796F120E7A6F9BDF640E0F
:101BE0007B6F74DF776B166AF2BE168EF29E680EFC
:101BF000B26F750EB36FB56B770EB46F67EC00F014
:101C000016BEF28E7751710806E11A0EF66E190EA5
:101C1000F76E6FDF05D0320EF66E190EF76E69DFC4
:101C2000166AF2BE168EF29E0C0EB26FB36BB56BD7
:101C3000770EB46F67EC00F016BEF28E775148084D
:101C400006E14E0EF66E190EF76E53DF05D0640EE8
:101C5000F66E190EF76E4DDF9EEF14F00900F6CF09
:101C60007AF0F7CF7BF0F5509EA8FED7AD6E7AC024
:101C7000F6FF7BC0F7FF792FF1D7120079BF10D0A4
:101C80000F0E006E783900160A0E005C03E2300E6B
:101C9000002602D07951002600509EA8FED7AD6ED6
:101CA0000F0E78170A0E785D02E2300E02D0799F8F
:101CB0007951782778519EA8FED7AD6E1200776BC8
:101CC000166AF2BE168EF29E680EB26F1A0EB36FCF
:101CD000B56B770EB46F67EC00F016BEF28E7E0E19
:101CE000F66E190EF76E100E796FB8DF77C078F0C8
:101CF000570E796FC3DF0A0E9EA8FED7AD6E0D0E8C
:101D00009EA8FED7AD6E166AF2BE168EF29E680EC3
:101D1000B26F6B0EB36FB56B770EB46F67EC00F0FC
:101D200016BEF28E940EF66E190EF76E140E796FC3
:101D300095DF77C078F0570E796FA0DF0A0E9EA866
:101D4000FED7AD6E0D0E9EA8FED7AD6E166AF2BE22
:101D5000168EF29E680EB26F6C0EB36FB56B770E77
:101D6000B46F67EC00F016BEF28EAE0EF66E190E72
:101D7000F76E140E796F72DF77C078F0570E796FB7
:101D80007DDF0A0E9EA8FED7AD6E0D0E9EA8FED773
:101D9000AD6E166AF2BE168EF29E680EB26F370EE8
:101DA000B36FB56B770EB46F67EC00F016BEF28EB2
:101DB000C80EF66E190EF76E150E796F4FDF77C0ED
:101DC00078F0570E796F5ADF0A0E9EA8FED7AD6ED7
:101DD0000D0E9EA8FED7AD6E166AF2BE168EF29E4E
:101DE000680EB26F750EB36FB56B770EB46F67EC9C
:101DF00000F016BEF28EE20EF66E190EF76E1B0E96
:101E0000796F2CDF77C078F0570E796F37DF0A0EC5
:101E10009EA8FED7AD6E0D0E9EA8FED7AD6E166ABB
:101E2000F2BE168EF29E0C0EB26FB36BB56B770ED0
:101E3000B46F67EC00F016BEF28E020EF66E1A0E4C
:101E4000F76E190E796F0ADF77C078F0570E796F49
:101E500015DF0A0E9EA8FED7AD6E0D0E9EA8FED70A
:101E6000AD6EA0EF14F07A6B796B7A510F08D8A0A1
:101E7000A2D004E179519F08D8A09DD0166AF2BE85
:101E8000168EF29E9C6B1D0E9B6F80EC01F016BEB1
:101E9000F28E040E7725E96E000E7821EA6EEACF05
:101EA00082F0E9CF81F0D892166AF2BE168EF29EC9
:101EB000EFCFC1F0ECCFC2F0ECCFC3F0ECCFC4F069
:101EC00020C0C8F01FC0C7F01EC0C6F01DC0C5F0BE
:101ED0000BEC02F016BEF28E82C0EAFF81C0E9FF71
:101EE00000C0EFFF01C0ECFF02C0ECFF03C0ECFF3D
:101EF00077C0E9FF78C0EAFFEACF82F0E9CF81F04E
:101F0000D892166AF2BE168EF29EEFCFC1F0ECCFD9
:101F1000C2F0ECCFC3F0ECCFC4F024C0C8F023C0B3
:101F2000C7F022C0C6F021C0C5F00BEC02F016BE0F
:101F3000F28E82C0EAFF81C0E9FF00C0EFFF01C05E
:101F4000ECFF02C0ECFF03C0ECFF080E7725E96E42
:101F5000000E7821EA6EEACF82F0E9CF81F0D892C4
:101F6000166AF2BE168EF29EEFCFC1F0ECCFC2F031
:101F7000ECCFC3F0ECCFC4F028C0C8F027C0C7F046
:101F800026C0C6F025C0C5F00BEC02F016BEF28EDE
:101F900082C0EAFF81C0E9FF00C0EFFF01C0ECFF93
:101FA00002C0ECFF03C0ECFF010E7B6F8FDD792BCD
:101FB000D8B47A2B5AD7040E7725E96E000E782113
:101FC000EA6E166AF2BE168EF29EEFCFC0F0ECCF2C
:101FD000C1F0ECCFC2F0ECCFC3F0ED52ED52ED52B8
:101FE000C76BC66B7A0EC56F8A0EC46FD3EC00F058
:101FF00016BEF28E00C0EFFF01C0ECFF02C0ECFF86
:1020000003C0ECFF77C0E9FF78C0EAFF166AF2BEB2
:10201000168EF29EEFCFC0F0ECCFC1F0ECCFC2F045
:10202000ECCFC3F0ED52ED52ED52C76BC66B7A0E9A
:10203000C56F8A0EC46FD3EC00F016BEF28E00C0DE
:10204000EFFF01C0ECFF02C0ECFF03C0ECFF080E85
:102050007725E96E000E7821EA6E166AF2BE168EBA
:10206000F29EEFCFC0F0ECCFC1F0ECCFC2F0ECCFDE
:10207000C3F0ED52ED52ED52C76BC66B7A0EC56FD1
:102080008A0EC46FD3EC00F016BEF28E00C0EFFFD4
:1020900001C0ECFF02C0ECFF03C0ECFFB3EF14F093
:1020A0008451B608846F036A85C088F0858FD89004
:1020B0008533863387330332023201320032842F74
:1020C000F6D788AF0BD0001E011E021E031E002A89
:1020D000D8B4012AD8B4022AD8B4032AE5EF10F004
:1020E000D8B203D0EA6A8C0EE96E006A016A026A0D
:1020F000036A8C6B8D6B8E6B8F6B8B518A11891180
:1021000088112CE0200E906FD89084378537863761
:1021100087378C378D378E378F378B518F5D08E13E
:102120008A518E5D05E189518D5D02E188518C5D9A
:102130000FE388518C5F8951D8A0893D8D5F8A510A
:10214000D8A08A3D8E5F8B51D8A08B3D8F5FD88001
:102150000036013602360336902FD6D78CC0EFFFFB
:102160008DC0ECFF8EC0ECFF8FC0ECFF1200E95079
:102170007C6F7B517E6F20E0166AF2BE168EF29E57
:102180007AC0C3F079C0C2F078C0C1F077C0C0F0A7
:10219000C76BC66B200EC56F820EC46F23EC04F0B4
:1021A00016BEF28E03C07AF002C079F001C078F05A
:1021B00000C077F07E2FE0D77AC087F079C086F034
:1021C00078C085F077C084F06BD703C07AF002C086
:1021D00079F001C078F000C077F07AAF0DD07C07BD
:1021E0007C8B771F781F791F7A1F772BD8B4782BB9
:1021F000D8B4792BD8B47A2B3B0E836F9A0E826FAA
:10220000CA0E816F806B0A0E7E6F7B51D8B47C2B17
:10221000D882EA6A770EE96E7AC087F079C086F0D4
:1022200078C085F077C084F083C08BF082C08AF0DC
:1022300081C089F080C088F053DF015000520FE167
:102240007B297E5D0CE07C510CE00F0B7E5D01E094
:102250003BE27CBF39D07CBD04D0200E30D0200EB4
:102260007C177CAB0DD07C9B7B51D8A47C070050A5
:102270007C6F2D0E9EA8FED7AD6E7C51006E7C6BE0
:102280007B517E5D0BE100507C6F2E0E9EA8FED729
:10229000AD6E7C51006E200E7C17000E300E7CABB4
:1022A0000ED07C9B7B51D8A47C0700507C6F2D0EF8
:1022B0009EA8FED7AD6E7C51006E7C6B300E002662
:1022C00000509EA8FED7AD6ED89283C087F082C022
:1022D00086F081C085F080C084F08B6B8A6B896B3F
:1022E0000A0E886FFDDE03C083F002C082F001C0D9
:1022F00081F000C080F07E2F8BD71200166AF2BEEC
:10230000168EF29E0C0EAB6F83C0ACF084C0ADF0A5
:1023100086C0AFF085C0AEF089EC00F016BEF28E3C
:1023200012007E6B7D6BF00E826F166AF2BE168E07
:10233000F29E680EB26F100EB36FB56B7F0EB46F66
:1023400067EC00F016BEF28E166AF2BE168EF29E92
:10235000680EB26F110EB36FB56B800EB46F67EC81
:1023600000F016BEF28E166AF2BE168EF29E680E4F
:10237000B26F120EB36FB56B810EB46F67EC00F0E5
:1023800016BEF28E82A110D0166AF2BE168EF29E92
:102390000C0EB26F020EB36FB56B820EB46F67ECAA
:1023A00000F016BEF28EEED7040E836F030E846F1C
:1023B000866B790E856FA2DF060E836F050E846F24
:1023C000866B7B0E856F9ADF080E836F070E846F16
:1023D000866B7D0E856F92DF77C0E9FF78C0EAFFDC
:1023E000800E7F5D166AF2BE168EF29E9C6B9B6F0E
:1023F000D6EC09F016BEF28E166AF2BE168EF29E6A
:1024000003C0C3F002C0C2F001C0C1F000C0C0F000
:10241000C76BC66BC56B7E0EC46F23EC04F016BE93
:10242000F28E03C088F002C087F001C086F000C0C1
:1024300085F0166AF2BE168EF29E03C0C3F002C08B
:10244000C2F001C0C1F000C0C0F0C76BC66BC56B65
:10245000860EC46FD3EC00F016BEF28E03C088F077
:1024600002C087F001C086F000C085F0EACF8AF094
:10247000E9CF89F0D892166AF2BE168EF29E03C09A
:10248000C4F002C0C3F001C0C2F000C0C1F0C86B0C
:10249000C76BC66B7F0EC56F0BEC02F016BEF28EDB
:1024A0008AC0EAFF89C0E9FF03C088F002C087F054
:1024B00001C086F000C085F0166AF2BE168EF29E4C
:1024C0007AC0AAF079C0A9F0AFEC00F016BEF28E87
:1024D000166AF2BE168EF29E03C0C3F002C0C2F0AE
:1024E00001C0C1F000C0C0F088C0C7F087C0C6F00E
:1024F00086C0C5F085C0C4F023EC04F016BEF28E91
:1025000000C0EFFF01C0ECFF02C0ECFF03C0ECFF16
:10251000040E7725E96E000E7821EA6E800E805D4C
:10252000166AF2BE168EF29E9C6B9B6FD6EC09F07B
:1025300016BEF28E166AF2BE168EF29E03C0C3F06D
:1025400002C0C2F001C0C1F000C0C0F0C76BC66BD2
:10255000C56B7E0EC46F23EC04F016BEF28E03C072
:1025600088F002C087F001C086F000C085F0166ACE
:10257000F2BE168EF29E03C0C3F002C0C2F001C0CC
:10258000C1F000C0C0F0C76BC66BC56B860EC46FD0
:10259000D3EC00F016BEF28E03C088F002C087F0C4
:1025A00001C086F000C085F0EACF8AF0E9CF89F05B
:1025B000D892166AF2BE168EF29E03C0C4F002C014
:1025C000C3F001C0C2F000C0C1F0C86BC76BC66BDE
:1025D0007F0EC56F0BEC02F016BEF28E8AC0EAFFCA
:1025E00089C0E9FF03C088F002C087F001C086F00F
:1025F00000C085F0166AF2BE168EF29E7CC0AAF06C
:102600007BC0A9F0AFEC00F016BEF28E166AF2BEE7
:10261000168EF29E03C0C3F002C0C2F001C0C1F02A
:1026200000C0C0F088C0C7F087C0C6F086C0C5F043
:1026300085C0C4F023EC04F016BEF28E00C0EFFF9C
:1026400001C0ECFF02C0ECFF03C0ECFF080E7725D1
:10265000E96E000E7821EA6E800E815D166AF2BE88
:10266000168EF29E9C6B9B6FD6EC09F016BEF28E16
:10267000166AF2BE168EF29E03C0C3F002C0C2F00C
:1026800001C0C1F000C0C0F0C76BC66BC56B7E0E49
:10269000C46F23EC04F016BEF28E03C088F002C0B3
:1026A00087F001C086F000C085F0166AF2BE168E73
:1026B000F29E03C0C3F002C0C2F001C0C1F000C06E
:1026C000C0F0C76BC66BC56B860EC46FD3EC00F051
:1026D00016BEF28E03C088F002C087F001C086F0FB
:1026E00000C085F0EACF8AF0E9CF89F0D892166A67
:1026F000F2BE168EF29E03C0C4F002C0C3F001C049
:10270000C2F000C0C1F0C86BC76BC66B7F0EC56F4F
:102710000BEC02F016BEF28E8AC0EAFF89C0E9FF18
:1027200003C088F002C087F001C086F000C085F0C9
:10273000166AF2BE168EF29E7EC0AAF07DC0A9F087
:10274000AFEC00F016BEF28E166AF2BE168EF29E46
:1027500003C0C3F002C0C2F001C0C1F000C0C0F0AD
:1027600088C0C7F087C0C6F086C0C5F085C0C4F079
:1027700023EC04F016BEF28E00C0EFFF01C0ECFFA8
:1027800002C0ECFF03C0ECFF166AF2BE168EF29E8A
:102790000C0EB26F090EB36FB56B820EB46F67EC9F
:1027A00000F016BEF28E1CEF15F08051016A7F5DBD
:1027B00003E27FC000F00CD0006A080E816F7F3703
:1027C00000368051005CD8B0006E0136812FF7D7FB
:1027D0001200200E7AA9300E7B6F79C000F079AF1D
:1027E00008D0001E002A00C079F02D0E7B6F7A8F72
:1027F0007A81015079C07FF0640E806FD6DF00C00F
:1028000079F0300E01247C6F79C07FF00A0E806F62
:10281000CCDF300E00247E6F300E01247D6F7BC034
:1028200000F0300E7C5D04E07A837ABF7A8512D0A6
:102830007BC07CF0200E7B6F300E7D5D04E07A81E2
:102840007ABF7A8307D0D8A47A8104E17CC07DF076
:10285000200E7C6F7AB505D07AB307D07AB109D053
:102860000CD07B519EA8FED7AD6E7C519EA8FED7A2
:10287000AD6E7D519EA8FED7AD6E7E519EA8FED74F
:10288000AD6E1200F86AD09E078EB8960C0EAF6E31
:10289000A20EAC6E900EAB6E93829380040EC86E47
:1028A000280EC66EC79EC79CC78C5C6A5B6A5A6A54
:1028B000596A040E5D6E616B606B5F6A5E6A626F7F
:1028C0000CD00200170000010FB4073C401D0008A7
:1028D00040630002001700000000000EF86E280E92
:1028E000F76EC20EF66E0900F550006E000A13E096
:1028F0000900F550016EE8BE05D00F0BEA6E090025
:10290000F5CFE9FF01BC090001AC0900F5CFEEFFEE
:10291000004EE9D7F9D7F86A0C0E776FFA0E7B6F85
:1029200066EC0DF0772FFAD793829380120EF66E35
:10293000180EF76E79EC0DF0B1EF0DF05FEF0EF0C1
:102940002E0EF66E180EF76E79EC0DF0080E776FFE
:10295000FA0E7B6F66EC0DF0772FFAD7786B410E8D
:10296000776F33EF0FF0660EF66E180EF76E79EC98
:102970000DF0880EF66E180EF76E170E796F2EECAE
:102980000EF0890EE96E44C07AF043C079F042C07F
:1029900078F041C077F0050E7B6FB7EC10F0A30E16
:1029A000F66E180EF76E190E796F2EEC0EF0890E7A
:1029B000E96E48C07AF047C079F046C078F045C06B
:1029C00077F0050E7B6FB7EC10F0C00EF66E180EA8
:1029D000F76E180E796F2EEC0EF0890EE96E4CC072
:1029E0007AF04BC079F04AC078F049C077F0050E14
:1029F0007B6FB7EC10F0DC0EF66E180EF76E030E60
:102A0000796F2EEC0EF0C00EF212000E0409CA6EA1
:102A1000FF0ECB6E9E929D826B6B6C6B6D6B6E6BC3
:102A20006F6B706B716B726B736B746B756B766BBA
:102A3000786B6B0E776F75D4166AF2BE168EF29EA7
:102A40005CC09EF05BC09DF05AC09CF059C09BF0EA
:102A50001FEC0BF016BEF28E01C077F0166AF2BEC4
:102A6000168EF29E61C09EF060C09DF05FC09CF02B
:102A70005EC09BF01FEC0BF016BEF28E01C078F02A
:102A8000E00EF66E180EF76E070E796F2EEC0EF054
:102A900077C079F0180E7A6F9CDEE90EF66E180E8C
:102AA000F76E0A0E796F2EEC0EF078C079F0180EE2
:102AB0007A6F8FDEF50EF66E180EF76E040E796FD4
:102AC0002EEC0EF0D882166AF2BE168EF29E20C050
:102AD000C4F01FC0C3F01EC0C2F01DC0C1F048C08A
:102AE000C8F047C0C7F046C0C6F045C0C5F00BEC03
:102AF00002F016BEF28E166AF2BE168EF29E03C069
:102B00009EF002C09DF001C09CF000C09BF01FEC45
:102B10000BF016BEF28E01C077F0D882166AF2BEB4
:102B2000168EF29E24C0C4F023C0C3F022C0C2F0AF
:102B300021C0C1F044C0C8F043C0C7F042C0C6F0D5
:102B400041C0C5F00BEC02F016BEF28E166AF2BE62
:102B5000168EF29E03C09EF002C09DF001C09CF054
:102B600000C09BF01FEC0BF016BEF28E01C078F097
:102B7000FA0EF66E180EF76E0A0E796F2EEC0EF046
:102B800077C079F0180E7A6F24DE060EF66E190EF5
:102B9000F76E0D0E796F2EEC0EF078C079F0180EEE
:102BA0007A6F17DE150EF66E190EF76E040E796F3A
:082BB0002EEC0EF03DD70300EE
:020000040030CA
:0E00000027CC3E1E0005A1000FC00FE00F40F0
:00000001FF
;PIC18F4550
;CRC=AA6C  CREATED="18-Dec-23 07:22"
